{
  "contractName": "MultiSig",
  "abi": [
    {
      "inputs": [
        {
          "internalType": "uint256",
          "name": "_minNumOfConfirmations",
          "type": "uint256"
        }
      ],
      "stateMutability": "nonpayable",
      "type": "constructor"
    },
    {
      "inputs": [],
      "name": "executedCount",
      "outputs": [
        {
          "internalType": "uint256",
          "name": "",
          "type": "uint256"
        }
      ],
      "stateMutability": "view",
      "type": "function",
      "constant": true
    },
    {
      "inputs": [
        {
          "internalType": "uint256",
          "name": "",
          "type": "uint256"
        },
        {
          "internalType": "address",
          "name": "",
          "type": "address"
        }
      ],
      "name": "isConfirmed",
      "outputs": [
        {
          "internalType": "bool",
          "name": "",
          "type": "bool"
        }
      ],
      "stateMutability": "view",
      "type": "function",
      "constant": true
    },
    {
      "inputs": [
        {
          "internalType": "address",
          "name": "",
          "type": "address"
        }
      ],
      "name": "isOwner",
      "outputs": [
        {
          "internalType": "bool",
          "name": "",
          "type": "bool"
        }
      ],
      "stateMutability": "view",
      "type": "function",
      "constant": true
    },
    {
      "inputs": [],
      "name": "minNumOfConfirmations",
      "outputs": [
        {
          "internalType": "uint256",
          "name": "",
          "type": "uint256"
        }
      ],
      "stateMutability": "view",
      "type": "function",
      "constant": true
    },
    {
      "inputs": [
        {
          "internalType": "uint256",
          "name": "",
          "type": "uint256"
        }
      ],
      "name": "owners",
      "outputs": [
        {
          "internalType": "address",
          "name": "",
          "type": "address"
        }
      ],
      "stateMutability": "view",
      "type": "function",
      "constant": true
    },
    {
      "inputs": [],
      "name": "transCount",
      "outputs": [
        {
          "internalType": "uint256",
          "name": "",
          "type": "uint256"
        }
      ],
      "stateMutability": "view",
      "type": "function",
      "constant": true
    },
    {
      "inputs": [
        {
          "internalType": "uint256",
          "name": "",
          "type": "uint256"
        }
      ],
      "name": "transactions",
      "outputs": [
        {
          "internalType": "address",
          "name": "to",
          "type": "address"
        },
        {
          "internalType": "uint256",
          "name": "value",
          "type": "uint256"
        },
        {
          "internalType": "bytes",
          "name": "data",
          "type": "bytes"
        },
        {
          "internalType": "bool",
          "name": "isConfirmed",
          "type": "bool"
        },
        {
          "internalType": "uint256",
          "name": "numOfConfirmations",
          "type": "uint256"
        }
      ],
      "stateMutability": "view",
      "type": "function",
      "constant": true
    },
    {
      "inputs": [],
      "name": "walletBalance",
      "outputs": [
        {
          "internalType": "uint256",
          "name": "",
          "type": "uint256"
        }
      ],
      "stateMutability": "view",
      "type": "function",
      "constant": true
    },
    {
      "inputs": [
        {
          "internalType": "address[]",
          "name": "_owners",
          "type": "address[]"
        }
      ],
      "name": "newOwner",
      "outputs": [],
      "stateMutability": "nonpayable",
      "type": "function"
    },
    {
      "inputs": [],
      "name": "deposit",
      "outputs": [],
      "stateMutability": "payable",
      "type": "function",
      "payable": true
    },
    {
      "inputs": [
        {
          "internalType": "address",
          "name": "_to",
          "type": "address"
        },
        {
          "internalType": "uint256",
          "name": "_value",
          "type": "uint256"
        },
        {
          "internalType": "bytes",
          "name": "_data",
          "type": "bytes"
        }
      ],
      "name": "submit",
      "outputs": [],
      "stateMutability": "payable",
      "type": "function",
      "payable": true
    },
    {
      "inputs": [
        {
          "internalType": "uint256",
          "name": "txIndex",
          "type": "uint256"
        }
      ],
      "name": "confirm",
      "outputs": [],
      "stateMutability": "nonpayable",
      "type": "function"
    },
    {
      "inputs": [
        {
          "internalType": "uint256",
          "name": "txIndex",
          "type": "uint256"
        }
      ],
      "name": "execute",
      "outputs": [],
      "stateMutability": "payable",
      "type": "function",
      "payable": true
    },
    {
      "inputs": [
        {
          "internalType": "uint256",
          "name": "txIndex",
          "type": "uint256"
        }
      ],
      "name": "revokeConfirmation",
      "outputs": [],
      "stateMutability": "nonpayable",
      "type": "function"
    },
    {
      "inputs": [
        {
          "internalType": "uint256",
          "name": "txIndex",
          "type": "uint256"
        }
      ],
      "name": "get",
      "outputs": [
        {
          "components": [
            {
              "internalType": "address",
              "name": "to",
              "type": "address"
            },
            {
              "internalType": "uint256",
              "name": "value",
              "type": "uint256"
            },
            {
              "internalType": "bytes",
              "name": "data",
              "type": "bytes"
            },
            {
              "internalType": "bool",
              "name": "isConfirmed",
              "type": "bool"
            },
            {
              "internalType": "uint256",
              "name": "numOfConfirmations",
              "type": "uint256"
            }
          ],
          "internalType": "struct MultiSig.Transaction",
          "name": "transaction",
          "type": "tuple"
        }
      ],
      "stateMutability": "view",
      "type": "function",
      "constant": true
    }
  ],
  "bytecode": "0x60806040523480156200001157600080fd5b50604051620022cc380380620022cc83398181016040528101906200003791906200018e565b600181116200007d576040517f08c379a0000000000000000000000000000000000000000000000000000000008152600401620000749062000247565b60405180910390fd5b6000600281905550600060048190555060016000803373ffffffffffffffffffffffffffffffffffffffff1673ffffffffffffffffffffffffffffffffffffffff16815260200190815260200160002060006101000a81548160ff0219169083151502179055506006339080600181540180825580915050600190039060005260206000200160009091909190916101000a81548173ffffffffffffffffffffffffffffffffffffffff021916908373ffffffffffffffffffffffffffffffffffffffff1602179055505062000269565b600080fd5b6000819050919050565b620001688162000153565b81146200017457600080fd5b50565b60008151905062000188816200015d565b92915050565b600060208284031215620001a757620001a66200014e565b5b6000620001b78482850162000177565b91505092915050565b600082825260208201905092915050565b7f4d696e696d756d206e756d626572206f6620636f6e6669726d6174696f6e732060008201527f6e6565647320746f206265206d6f7265207468616e20312e0000000000000000602082015250565b60006200022f603883620001c0565b91506200023c82620001d1565b604082019050919050565b60006020820190508181036000830152620002628162000220565b9050919050565b61205380620002796000396000f3fe6080604052600436106100e85760003560e01c80639507d39a1161008a578063bacd2e9711610059578063bacd2e971461030f578063cd0a314b1461033a578063d0e30db014610365578063fe0d94c11461036f576100e8565b80639507d39a1461023d5780639ace38c21461027a578063a32b2803146102bb578063ba0179b5146102e6576100e8565b806320ea8d86116100c657806320ea8d861461016f5780632f54bf6e14610198578063513a462a146101d557806380f59a6514610200576100e8565b8063025e7c27146100ed5780630ec7298d1461012a57806314de327f14610153575b600080fd5b3480156100f957600080fd5b50610114600480360381019061010f919061154f565b61038b565b60405161012191906115bd565b60405180910390f35b34801561013657600080fd5b50610151600480360381019061014c919061175d565b6103ca565b005b61016d6004803603810190610168919061185b565b61064d565b005b34801561017b57600080fd5b506101966004803603810190610191919061154f565b6108ca565b005b3480156101a457600080fd5b506101bf60048036038101906101ba91906118ca565b610ae6565b6040516101cc9190611912565b60405180910390f35b3480156101e157600080fd5b506101ea610b06565b6040516101f7919061193c565b60405180910390f35b34801561020c57600080fd5b5061022760048036038101906102229190611957565b610b0c565b6040516102349190611912565b60405180910390f35b34801561024957600080fd5b50610264600480360381019061025f919061154f565b610b3b565b6040516102719190611ac2565b60405180910390f35b34801561028657600080fd5b506102a1600480360381019061029c919061154f565b610c85565b6040516102b2959493929190611b2e565b60405180910390f35b3480156102c757600080fd5b506102d0610d80565b6040516102dd919061193c565b60405180910390f35b3480156102f257600080fd5b5061030d6004803603810190610308919061154f565b610d86565b005b34801561031b57600080fd5b50610324610efa565b604051610331919061193c565b60405180910390f35b34801561034657600080fd5b5061034f610f00565b60405161035c919061193c565b60405180910390f35b61036d610f06565b005b6103896004803603810190610384919061154f565b610fac565b005b6006818154811061039b57600080fd5b906000526020600020016000915054906101000a900473ffffffffffffffffffffffffffffffffffffffff1681565b6000803373ffffffffffffffffffffffffffffffffffffffff1673ffffffffffffffffffffffffffffffffffffffff16815260200190815260200160002060009054906101000a900460ff16610455576040517f08c379a000000000000000000000000000000000000000000000000000000000815260040161044c90611be5565b60405180910390fd5b60005b815181101561064957600082828151811061047657610475611c05565b5b602002602001015190506000808273ffffffffffffffffffffffffffffffffffffffff1673ffffffffffffffffffffffffffffffffffffffff16815260200190815260200160002060009054906101000a900460ff161561050c576040517f08c379a000000000000000000000000000000000000000000000000000000000815260040161050390611c80565b60405180910390fd5b600073ffffffffffffffffffffffffffffffffffffffff168173ffffffffffffffffffffffffffffffffffffffff160361057b576040517f08c379a000000000000000000000000000000000000000000000000000000000815260040161057290611cec565b60405180910390fd5b60016000808373ffffffffffffffffffffffffffffffffffffffff1673ffffffffffffffffffffffffffffffffffffffff16815260200190815260200160002060006101000a81548160ff0219169083151502179055506006819080600181540180825580915050600190039060005260206000200160009091909190916101000a81548173ffffffffffffffffffffffffffffffffffffffff021916908373ffffffffffffffffffffffffffffffffffffffff16021790555050808061064190611d3b565b915050610458565b5050565b6000803373ffffffffffffffffffffffffffffffffffffffff1673ffffffffffffffffffffffffffffffffffffffff16815260200190815260200160002060009054906101000a900460ff166106d8576040517f08c379a00000000000000000000000000000000000000000000000000000000081526004016106cf90611be5565b60405180910390fd5b600082111561071c576040517f08c379a000000000000000000000000000000000000000000000000000000000815260040161071390611dcf565b60405180910390fd5b600060025490506000600360008381526020019081526020016000206040518060a00160405290816000820160009054906101000a900473ffffffffffffffffffffffffffffffffffffffff1673ffffffffffffffffffffffffffffffffffffffff1673ffffffffffffffffffffffffffffffffffffffff168152602001600182015481526020016002820180546107b390611e1e565b80601f01602080910402602001604051908101604052809291908181526020018280546107df90611e1e565b801561082c5780601f106108015761010080835404028352916020019161082c565b820191906000526020600020905b81548152906001019060200180831161080f57829003601f168201915b505050505081526020016003820160009054906101000a900460ff16151515158152602001600482015481525050905084816000019073ffffffffffffffffffffffffffffffffffffffff16908173ffffffffffffffffffffffffffffffffffffffff168152505083816020018181525050828160400181905250600081606001901515908115158152505060008160800181815250505050505050565b6000803373ffffffffffffffffffffffffffffffffffffffff1673ffffffffffffffffffffffffffffffffffffffff16815260200190815260200160002060009054906101000a900460ff16610955576040517f08c379a000000000000000000000000000000000000000000000000000000000815260040161094c90611be5565b60405180910390fd5b6001600360008381526020019081526020016000206004015410156109af576040517f08c379a00000000000000000000000000000000000000000000000000000000081526004016109a690611e9b565b60405180910390fd5b6009600082815260200190815260200160002060003373ffffffffffffffffffffffffffffffffffffffff1673ffffffffffffffffffffffffffffffffffffffff16815260200190815260200160002060009054906101000a900460ff16610a4c576040517f08c379a0000000000000000000000000000000000000000000000000000000008152600401610a4390611f07565b60405180910390fd5b60006009600083815260200190815260200160002060003373ffffffffffffffffffffffffffffffffffffffff1673ffffffffffffffffffffffffffffffffffffffff16815260200190815260200160002060006101000a81548160ff0219169083151502179055506001600360008381526020019081526020016000206004016000828254610adc9190611f27565b9250508190555050565b60006020528060005260406000206000915054906101000a900460ff1681565b60025481565b60096020528160005260406000206020528060005260406000206000915091509054906101000a900460ff1681565b610b43611461565b6000600360008481526020019081526020016000206040518060a00160405290816000820160009054906101000a900473ffffffffffffffffffffffffffffffffffffffff1673ffffffffffffffffffffffffffffffffffffffff1673ffffffffffffffffffffffffffffffffffffffff16815260200160018201548152602001600282018054610bd390611e1e565b80601f0160208091040260200160405190810160405280929190818152602001828054610bff90611e1e565b8015610c4c5780601f10610c2157610100808354040283529160200191610c4c565b820191906000526020600020905b815481529060010190602001808311610c2f57829003601f168201915b505050505081526020016003820160009054906101000a900460ff16151515158152602001600482015481525050905080915050919050565b60018181548110610c9557600080fd5b90600052602060002090600502016000915090508060000160009054906101000a900473ffffffffffffffffffffffffffffffffffffffff1690806001015490806002018054610ce490611e1e565b80601f0160208091040260200160405190810160405280929190818152602001828054610d1090611e1e565b8015610d5d5780601f10610d3257610100808354040283529160200191610d5d565b820191906000526020600020905b815481529060010190602001808311610d4057829003601f168201915b5050505050908060030160009054906101000a900460ff16908060040154905085565b60075481565b6000803373ffffffffffffffffffffffffffffffffffffffff1673ffffffffffffffffffffffffffffffffffffffff16815260200190815260200160002060009054906101000a900460ff16610e11576040517f08c379a0000000000000000000000000000000000000000000000000000000008152600401610e0890611be5565b60405180910390fd5b6001600360008381526020019081526020016000206004016000828254610e389190611f5b565b92505081905550600754600360008381526020019081526020016000206004015410610ef75760016003600083815260200190815260200160002060030160006101000a81548160ff02191690831515021790555060016009600083815260200190815260200160002060003373ffffffffffffffffffffffffffffffffffffffff1673ffffffffffffffffffffffffffffffffffffffff16815260200190815260200160002060006101000a81548160ff0219169083151502179055505b50565b60045481565b60085481565b6000803373ffffffffffffffffffffffffffffffffffffffff1673ffffffffffffffffffffffffffffffffffffffff16815260200190815260200160002060009054906101000a900460ff16610f91576040517f08c379a0000000000000000000000000000000000000000000000000000000008152600401610f8890611be5565b60405180910390fd5b3460086000828254610fa39190611f5b565b92505081905550565b6000803373ffffffffffffffffffffffffffffffffffffffff1673ffffffffffffffffffffffffffffffffffffffff16815260200190815260200160002060009054906101000a900460ff16611037576040517f08c379a000000000000000000000000000000000000000000000000000000000815260040161102e90611be5565b60405180910390fd5b60075460036000838152602001908152602001600020600401541015611092576040517f08c379a000000000000000000000000000000000000000000000000000000000815260040161108990611ffd565b60405180910390fd5b60006003600083815260200190815260200160002060000160009054906101000a900473ffffffffffffffffffffffffffffffffffffffff1690506000600360008481526020019081526020016000206001015490508173ffffffffffffffffffffffffffffffffffffffff166108fc829081150290604051600060405180830381858888f1935050505015801561112e573d6000803e3d6000fd5b506001600460008282546111429190611f5b565b9250508190555060006005600060045481526020019081526020016000206040518060a00160405290816000820160009054906101000a900473ffffffffffffffffffffffffffffffffffffffff1673ffffffffffffffffffffffffffffffffffffffff1673ffffffffffffffffffffffffffffffffffffffff168152602001600182015481526020016002820180546111db90611e1e565b80601f016020809104026020016040519081016040528092919081815260200182805461120790611e1e565b80156112545780601f1061122957610100808354040283529160200191611254565b820191906000526020600020905b81548152906001019060200180831161123757829003601f168201915b505050505081526020016003820160009054906101000a900460ff1615151515815260200160048201548152505090506003600085815260200190815260200160002060000160009054906101000a900473ffffffffffffffffffffffffffffffffffffffff16816000019073ffffffffffffffffffffffffffffffffffffffff16908173ffffffffffffffffffffffffffffffffffffffff1681525050600360008581526020019081526020016000206001015481602001818152505060036000858152602001908152602001600020600201805461133390611e1e565b80601f016020809104026020016040519081016040528092919081815260200182805461135f90611e1e565b80156113ac5780601f10611381576101008083540402835291602001916113ac565b820191906000526020600020905b81548152906001019060200180831161138f57829003601f168201915b505050505081604001819052506001816060019015159081151581525050600360008581526020019081526020016000206004015481608001818152505060036000858152602001908152602001600020600080820160006101000a81549073ffffffffffffffffffffffffffffffffffffffff0219169055600182016000905560028201600061143d91906114a8565b6003820160006101000a81549060ff02191690556004820160009055505050505050565b6040518060a00160405280600073ffffffffffffffffffffffffffffffffffffffff1681526020016000815260200160608152602001600015158152602001600081525090565b5080546114b490611e1e565b6000825580601f106114c657506114e5565b601f0160209004906000526020600020908101906114e491906114e8565b5b50565b5b808211156115015760008160009055506001016114e9565b5090565b6000604051905090565b600080fd5b600080fd5b6000819050919050565b61152c81611519565b811461153757600080fd5b50565b60008135905061154981611523565b92915050565b6000602082840312156115655761156461150f565b5b60006115738482850161153a565b91505092915050565b600073ffffffffffffffffffffffffffffffffffffffff82169050919050565b60006115a78261157c565b9050919050565b6115b78161159c565b82525050565b60006020820190506115d260008301846115ae565b92915050565b600080fd5b6000601f19601f8301169050919050565b7f4e487b7100000000000000000000000000000000000000000000000000000000600052604160045260246000fd5b611626826115dd565b810181811067ffffffffffffffff82111715611645576116446115ee565b5b80604052505050565b6000611658611505565b9050611664828261161d565b919050565b600067ffffffffffffffff821115611684576116836115ee565b5b602082029050602081019050919050565b600080fd5b6116a38161159c565b81146116ae57600080fd5b50565b6000813590506116c08161169a565b92915050565b60006116d96116d484611669565b61164e565b905080838252602082019050602084028301858111156116fc576116fb611695565b5b835b81811015611725578061171188826116b1565b8452602084019350506020810190506116fe565b5050509392505050565b600082601f830112611744576117436115d8565b5b81356117548482602086016116c6565b91505092915050565b6000602082840312156117735761177261150f565b5b600082013567ffffffffffffffff81111561179157611790611514565b5b61179d8482850161172f565b91505092915050565b600080fd5b600067ffffffffffffffff8211156117c6576117c56115ee565b5b6117cf826115dd565b9050602081019050919050565b82818337600083830152505050565b60006117fe6117f9846117ab565b61164e565b90508281526020810184848401111561181a576118196117a6565b5b6118258482856117dc565b509392505050565b600082601f830112611842576118416115d8565b5b81356118528482602086016117eb565b91505092915050565b6000806000606084860312156118745761187361150f565b5b6000611882868287016116b1565b93505060206118938682870161153a565b925050604084013567ffffffffffffffff8111156118b4576118b3611514565b5b6118c08682870161182d565b9150509250925092565b6000602082840312156118e0576118df61150f565b5b60006118ee848285016116b1565b91505092915050565b60008115159050919050565b61190c816118f7565b82525050565b60006020820190506119276000830184611903565b92915050565b61193681611519565b82525050565b6000602082019050611951600083018461192d565b92915050565b6000806040838503121561196e5761196d61150f565b5b600061197c8582860161153a565b925050602061198d858286016116b1565b9150509250929050565b6119a08161159c565b82525050565b6119af81611519565b82525050565b600081519050919050565b600082825260208201905092915050565b60005b838110156119ef5780820151818401526020810190506119d4565b838111156119fe576000848401525b50505050565b6000611a0f826119b5565b611a1981856119c0565b9350611a298185602086016119d1565b611a32816115dd565b840191505092915050565b611a46816118f7565b82525050565b600060a083016000830151611a646000860182611997565b506020830151611a7760208601826119a6565b5060408301518482036040860152611a8f8282611a04565b9150506060830151611aa46060860182611a3d565b506080830151611ab760808601826119a6565b508091505092915050565b60006020820190508181036000830152611adc8184611a4c565b905092915050565b600082825260208201905092915050565b6000611b00826119b5565b611b0a8185611ae4565b9350611b1a8185602086016119d1565b611b23816115dd565b840191505092915050565b600060a082019050611b4360008301886115ae565b611b50602083018761192d565b8181036040830152611b628186611af5565b9050611b716060830185611903565b611b7e608083018461192d565b9695505050505050565b600082825260208201905092915050565b7f4f6e6c79206f776e6572732063616e20646f20746869732e0000000000000000600082015250565b6000611bcf601883611b88565b9150611bda82611b99565b602082019050919050565b60006020820190508181036000830152611bfe81611bc2565b9050919050565b7f4e487b7100000000000000000000000000000000000000000000000000000000600052603260045260246000fd5b7f416c726561647920616e206f776e65722e000000000000000000000000000000600082015250565b6000611c6a601183611b88565b9150611c7582611c34565b602082019050919050565b60006020820190508181036000830152611c9981611c5d565b9050919050565b7f4f6e6c79207265616c2061646472657373657320706c656173652e0000000000600082015250565b6000611cd6601b83611b88565b9150611ce182611ca0565b602082019050919050565b60006020820190508181036000830152611d0581611cc9565b9050919050565b7f4e487b7100000000000000000000000000000000000000000000000000000000600052601160045260246000fd5b6000611d4682611519565b91507fffffffffffffffffffffffffffffffffffffffffffffffffffffffffffffffff8203611d7857611d77611d0c565b5b600182019050919050565b7f6d75737420626520677265617465207468616e20300000000000000000000000600082015250565b6000611db9601583611b88565b9150611dc482611d83565b602082019050919050565b60006020820190508181036000830152611de881611dac565b9050919050565b7f4e487b7100000000000000000000000000000000000000000000000000000000600052602260045260246000fd5b60006002820490506001821680611e3657607f821691505b602082108103611e4957611e48611def565b5b50919050565b7f4e6f20636f6e6669726d6174696f6e7300000000000000000000000000000000600082015250565b6000611e85601083611b88565b9150611e9082611e4f565b602082019050919050565b60006020820190508181036000830152611eb481611e78565b9050919050565b7f596f75206469646e277420636f6e6669726d2100000000000000000000000000600082015250565b6000611ef1601383611b88565b9150611efc82611ebb565b602082019050919050565b60006020820190508181036000830152611f2081611ee4565b9050919050565b6000611f3282611519565b9150611f3d83611519565b925082821015611f5057611f4f611d0c565b5b828203905092915050565b6000611f6682611519565b9150611f7183611519565b9250827fffffffffffffffffffffffffffffffffffffffffffffffffffffffffffffffff03821115611fa657611fa5611d0c565b5b828201905092915050565b7f4e6f7420656e6f75676820636f6e6669726d6174696f6e732e00000000000000600082015250565b6000611fe7601983611b88565b9150611ff282611fb1565b602082019050919050565b6000602082019050818103600083015261201681611fda565b905091905056fea2646970667358221220b78a4b4ab70e185aeeb9f2bf5ab3e57137de67bb6bd636c42dede4d947af604564736f6c634300080e0033",
  "immutableReferences": {},
  "source": "//SPDX-License-Identifier: MIT\npragma solidity ^0.8.7;\n\ncontract MultiSig {\n    //transaction struct -> to, value, isConfirmed?, numOfConfirmations, data?\n    //array of transactions\n    //mapping for owners\n    //events? Confirm; Revoke; Execute, Submit -> Transactions\n    //events: deposit\n    //constructor: list of owners (all appeneded in); minNumOfConfirmations\n    //functions: deposit; submitTransactions; confirmTransactions; executeTransactions; revokeTransactions?; getTransactions\n\n    struct Transaction {\n        address to;\n        uint256 value;\n        bytes data;\n        bool isConfirmed;\n        uint256 numOfConfirmations;\n    }\n\n    mapping(address => bool) public isOwner;\n\n    Transaction[] public transactions;\n\n    uint256 public transCount;\n\n    mapping(uint256 => Transaction) transMap;\n\n    uint256 public executedCount;\n\n    mapping(uint256 => Transaction) executedTrans;\n\n    address[] public owners;\n\n    uint256 public minNumOfConfirmations;\n\n    uint256 public walletBalance;\n\n    //mapping mapping to check if a user confirmed transaction.\n    mapping(uint256 => mapping(address => bool)) public isConfirmed;\n\n    modifier onlyOwner() {\n        require(isOwner[msg.sender], \"Only owners can do this.\");\n        _;\n    }\n\n    //events\n\n    /* event depositAmount(address indexed from, uint256 amount);\n    event submitTransaction(\n        address indexed owner,\n        address indexed to,\n        uint256 value,\n        bytes data,\n        uint256 indexed txIndex\n    );\n    event confirmTransaction(\n        Transaction transaction,\n        uint256 indexed txIndex,\n        bool confirmed\n    );\n    event revokeTransaction(Transaction transaction, uint256 indexed txIndex);\n    event executeTransaction(Transaction transaction, uint256 indexed txIndex);\n    event submitTransaction(Transaction transaction, uint256 indexed txIndex); */\n\n    constructor(uint256 _minNumOfConfirmations) {\n        //        require(_owners.length > 1, \"Must be more than one owner.\");\n        require(\n            _minNumOfConfirmations > 1,\n            \"Minimum number of confirmations needs to be more than 1.\"\n        );\n\n        transCount = 0;\n        executedCount = 0;\n\n        isOwner[msg.sender] = true;\n        owners.push(msg.sender);\n    }\n\n    function newOwner(address[] memory _owners) public onlyOwner {\n        for (uint256 i = 0; i < _owners.length; i++) {\n            address owner = _owners[i];\n\n            require(!isOwner[owner], \"Already an owner.\");\n            require(owner != address(0), \"Only real addresses please.\");\n\n            isOwner[owner] = true;\n            owners.push(owner);\n        }\n    }\n\n    //deposit payable\n    function deposit() public payable onlyOwner {\n        walletBalance += msg.value;\n        // emit depositAmount(msg.sender, msg.value);\n    }\n\n    //submitTransactions\n    function submit(\n        address _to,\n        uint256 _value,\n        bytes memory _data\n    ) public payable onlyOwner {\n        require(_value <= 0, \"must be greate than 0\");\n\n        //uint256 txIndex = transactions.length;\n        uint256 txIndex = transCount;\n\n        //transactions.push(Transaction(_to, _value, _data, false, 0));\n        Transaction memory _transaction = transMap[txIndex];\n\n        _transaction.to = _to;\n        _transaction.value = _value;\n        _transaction.data = _data;\n        _transaction.isConfirmed = false;\n        _transaction.numOfConfirmations = 0;\n\n        // emit submitTransaction(msg.sender, _to, _value, _data, txIndex);\n    }\n\n    //confirmTransactions\n    function confirm(uint256 txIndex) public onlyOwner {\n        transMap[txIndex].numOfConfirmations += 1;\n\n        if (transMap[txIndex].numOfConfirmations >= minNumOfConfirmations) {\n            transMap[txIndex].isConfirmed = true;\n            isConfirmed[txIndex][msg.sender] = true;\n            //emit confirmTransaction(transMap[txIndex], txIndex, true);\n        }\n        // else {\n        //     emit confirmTransaction(transMap[txIndex], txIndex, false);\n        // }\n    }\n\n    //count & mapping instead of array. (TICK)\n\n    //executeTransactions\n    function execute(uint256 txIndex) public payable onlyOwner {\n        require(\n            transMap[txIndex].numOfConfirmations >= minNumOfConfirmations,\n            \"Not enough confirmations.\"\n        );\n\n        //send value to 'to' & move to executed trans\n        address reciever = transMap[txIndex].to;\n        uint256 amount = transMap[txIndex].value;\n\n        //sent\n        payable(reciever).transfer(amount);\n\n        executedCount += 1;\n\n        Transaction memory _transaction = executedTrans[executedCount];\n\n        _transaction.to = transMap[txIndex].to;\n        _transaction.value = transMap[txIndex].value;\n        _transaction.data = transMap[txIndex].data;\n        _transaction.isConfirmed = true;\n        _transaction.numOfConfirmations = transMap[txIndex].numOfConfirmations;\n\n        //remove from trans mapping\n        delete transMap[txIndex];\n\n        // emit executeTransaction(executedTrans[executedCount], executedCount);\n    }\n\n    //revokeTransactions\n    function revokeConfirmation(uint256 txIndex) public onlyOwner {\n        require(transMap[txIndex].numOfConfirmations >= 1, \"No confirmations\");\n        require(isConfirmed[txIndex][msg.sender], \"You didn't confirm!\");\n\n        isConfirmed[txIndex][msg.sender] = false;\n        transMap[txIndex].numOfConfirmations -= 1;\n\n        // emit revokeTransaction(transMap[txIndex], txIndex);\n    }\n\n    //getTransactions\n    function get(uint256 txIndex)\n        public\n        view\n        returns (Transaction memory transaction)\n    {\n        Transaction memory getTran = transMap[txIndex];\n\n        return getTran;\n    }\n}\n",
  "sourcePath": "/Users/Dolapo/Desktop/CryptoDev/DevelopmentTutorials/MultiSig/src/contracts/MultiSig.sol",
  "compiler": {
    "name": "solc",
    "version": "0.8.14+commit.80d49f37.Emscripten.clang"
  },
  "schemaVersion": "3.4.7",
  "updatedAt": "2022-10-13T21:08:56.840Z",
  "networkType": "ethereum",
  "devdoc": {
    "kind": "dev",
    "methods": {},
    "version": 1
  },
  "userdoc": {
    "kind": "user",
    "methods": {},
    "version": 1
  }
}