{
  "contractName": "MultiSig",
  "abi": [
    {
      "inputs": [
        {
          "internalType": "uint256",
          "name": "_minNumOfConfirmations",
          "type": "uint256"
        }
      ],
      "stateMutability": "nonpayable",
      "type": "constructor"
    },
    {
      "inputs": [],
      "name": "executedCount",
      "outputs": [
        {
          "internalType": "uint256",
          "name": "",
          "type": "uint256"
        }
      ],
      "stateMutability": "view",
      "type": "function",
      "constant": true
    },
    {
      "inputs": [
        {
          "internalType": "uint256",
          "name": "",
          "type": "uint256"
        }
      ],
      "name": "executedTransactions",
      "outputs": [
        {
          "internalType": "address",
          "name": "to",
          "type": "address"
        },
        {
          "internalType": "uint256",
          "name": "value",
          "type": "uint256"
        },
        {
          "internalType": "string",
          "name": "data",
          "type": "string"
        },
        {
          "internalType": "bool",
          "name": "isConfirmed",
          "type": "bool"
        },
        {
          "internalType": "uint256",
          "name": "numOfConfirmations",
          "type": "uint256"
        },
        {
          "internalType": "bool",
          "name": "hasBeenExecuted",
          "type": "bool"
        }
      ],
      "stateMutability": "view",
      "type": "function",
      "constant": true
    },
    {
      "inputs": [
        {
          "internalType": "uint256",
          "name": "",
          "type": "uint256"
        },
        {
          "internalType": "address",
          "name": "",
          "type": "address"
        }
      ],
      "name": "isConfirmed",
      "outputs": [
        {
          "internalType": "bool",
          "name": "",
          "type": "bool"
        }
      ],
      "stateMutability": "view",
      "type": "function",
      "constant": true
    },
    {
      "inputs": [
        {
          "internalType": "address",
          "name": "",
          "type": "address"
        }
      ],
      "name": "isOwner",
      "outputs": [
        {
          "internalType": "bool",
          "name": "",
          "type": "bool"
        }
      ],
      "stateMutability": "view",
      "type": "function",
      "constant": true
    },
    {
      "inputs": [],
      "name": "minNumOfConfirmations",
      "outputs": [
        {
          "internalType": "uint256",
          "name": "",
          "type": "uint256"
        }
      ],
      "stateMutability": "view",
      "type": "function",
      "constant": true
    },
    {
      "inputs": [
        {
          "internalType": "uint256",
          "name": "",
          "type": "uint256"
        }
      ],
      "name": "owners",
      "outputs": [
        {
          "internalType": "address",
          "name": "",
          "type": "address"
        }
      ],
      "stateMutability": "view",
      "type": "function",
      "constant": true
    },
    {
      "inputs": [],
      "name": "ownersCount",
      "outputs": [
        {
          "internalType": "uint256",
          "name": "",
          "type": "uint256"
        }
      ],
      "stateMutability": "view",
      "type": "function",
      "constant": true
    },
    {
      "inputs": [],
      "name": "transCount",
      "outputs": [
        {
          "internalType": "uint256",
          "name": "",
          "type": "uint256"
        }
      ],
      "stateMutability": "view",
      "type": "function",
      "constant": true
    },
    {
      "inputs": [
        {
          "internalType": "uint256",
          "name": "",
          "type": "uint256"
        }
      ],
      "name": "transactions",
      "outputs": [
        {
          "internalType": "address",
          "name": "to",
          "type": "address"
        },
        {
          "internalType": "uint256",
          "name": "value",
          "type": "uint256"
        },
        {
          "internalType": "string",
          "name": "data",
          "type": "string"
        },
        {
          "internalType": "bool",
          "name": "isConfirmed",
          "type": "bool"
        },
        {
          "internalType": "uint256",
          "name": "numOfConfirmations",
          "type": "uint256"
        },
        {
          "internalType": "bool",
          "name": "hasBeenExecuted",
          "type": "bool"
        }
      ],
      "stateMutability": "view",
      "type": "function",
      "constant": true
    },
    {
      "inputs": [],
      "name": "walletBalance",
      "outputs": [
        {
          "internalType": "uint256",
          "name": "",
          "type": "uint256"
        }
      ],
      "stateMutability": "view",
      "type": "function",
      "constant": true
    },
    {
      "inputs": [
        {
          "internalType": "address[]",
          "name": "_owners",
          "type": "address[]"
        }
      ],
      "name": "newOwner",
      "outputs": [],
      "stateMutability": "nonpayable",
      "type": "function"
    },
    {
      "inputs": [],
      "name": "deposit",
      "outputs": [],
      "stateMutability": "payable",
      "type": "function",
      "payable": true
    },
    {
      "inputs": [
        {
          "internalType": "address",
          "name": "_to",
          "type": "address"
        },
        {
          "internalType": "uint256",
          "name": "_value",
          "type": "uint256"
        },
        {
          "internalType": "string",
          "name": "_data",
          "type": "string"
        }
      ],
      "name": "submit",
      "outputs": [],
      "stateMutability": "payable",
      "type": "function",
      "payable": true
    },
    {
      "inputs": [
        {
          "internalType": "uint256",
          "name": "txIndex",
          "type": "uint256"
        }
      ],
      "name": "confirm",
      "outputs": [],
      "stateMutability": "nonpayable",
      "type": "function"
    },
    {
      "inputs": [
        {
          "internalType": "uint256",
          "name": "txIndex",
          "type": "uint256"
        }
      ],
      "name": "execute",
      "outputs": [],
      "stateMutability": "payable",
      "type": "function",
      "payable": true
    },
    {
      "inputs": [
        {
          "internalType": "uint256",
          "name": "txIndex",
          "type": "uint256"
        }
      ],
      "name": "revokeConfirmation",
      "outputs": [],
      "stateMutability": "nonpayable",
      "type": "function"
    },
    {
      "inputs": [
        {
          "internalType": "uint256",
          "name": "txIndex",
          "type": "uint256"
        }
      ],
      "name": "get",
      "outputs": [
        {
          "components": [
            {
              "internalType": "address",
              "name": "to",
              "type": "address"
            },
            {
              "internalType": "uint256",
              "name": "value",
              "type": "uint256"
            },
            {
              "internalType": "string",
              "name": "data",
              "type": "string"
            },
            {
              "internalType": "bool",
              "name": "isConfirmed",
              "type": "bool"
            },
            {
              "internalType": "uint256",
              "name": "numOfConfirmations",
              "type": "uint256"
            },
            {
              "internalType": "bool",
              "name": "hasBeenExecuted",
              "type": "bool"
            }
          ],
          "internalType": "struct MultiSig.Transaction",
          "name": "transaction",
          "type": "tuple"
        }
      ],
      "stateMutability": "view",
      "type": "function",
      "constant": true
    },
    {
      "inputs": [
        {
          "internalType": "uint256",
          "name": "txIndex",
          "type": "uint256"
        }
      ],
      "name": "getConfirmations",
      "outputs": [
        {
          "internalType": "uint256",
          "name": "",
          "type": "uint256"
        }
      ],
      "stateMutability": "view",
      "type": "function",
      "constant": true
    },
    {
      "inputs": [
        {
          "internalType": "uint256",
          "name": "txIndex",
          "type": "uint256"
        }
      ],
      "name": "getAmount",
      "outputs": [
        {
          "internalType": "uint256",
          "name": "",
          "type": "uint256"
        }
      ],
      "stateMutability": "view",
      "type": "function",
      "constant": true
    },
    {
      "inputs": [
        {
          "internalType": "address",
          "name": "_address",
          "type": "address"
        }
      ],
      "name": "getBalanceOf",
      "outputs": [
        {
          "internalType": "uint256",
          "name": "",
          "type": "uint256"
        }
      ],
      "stateMutability": "view",
      "type": "function",
      "constant": true
    },
    {
      "inputs": [
        {
          "internalType": "uint256",
          "name": "_txIndex",
          "type": "uint256"
        },
        {
          "internalType": "address",
          "name": "_user",
          "type": "address"
        }
      ],
      "name": "checkConfirmation",
      "outputs": [
        {
          "internalType": "bool",
          "name": "",
          "type": "bool"
        }
      ],
      "stateMutability": "view",
      "type": "function",
      "constant": true
    }
  ],
  "bytecode": "0x60806040523480156200001157600080fd5b5060405162002a2038038062002a208339818101604052810190620000379190620001a5565b600081116200007d576040517f08c379a000000000000000000000000000000000000000000000000000000000815260040162000074906200025e565b60405180910390fd5b60006003819055506000600581905550600060018190555060006009819055508060088190555060016000803373ffffffffffffffffffffffffffffffffffffffff1673ffffffffffffffffffffffffffffffffffffffff16815260200190815260200160002060006101000a81548160ff0219169083151502179055506007339080600181540180825580915050600190039060005260206000200160009091909190916101000a81548173ffffffffffffffffffffffffffffffffffffffff021916908373ffffffffffffffffffffffffffffffffffffffff1602179055505062000280565b600080fd5b6000819050919050565b6200017f816200016a565b81146200018b57600080fd5b50565b6000815190506200019f8162000174565b92915050565b600060208284031215620001be57620001bd62000165565b5b6000620001ce848285016200018e565b91505092915050565b600082825260208201905092915050565b7f4d696e696d756d206e756d626572206f6620636f6e6669726d6174696f6e732060008201527f6e6565647320746f206265206d6f7265207468616e20302e0000000000000000602082015250565b600062000246603883620001d7565b91506200025382620001e8565b604082019050919050565b60006020820190508181036000830152620002798162000237565b9050919050565b61279080620002906000396000f3fe60806040526004361061012a5760003560e01c80639adc9652116100ab578063b94885461161006f578063b94885461461045f578063ba0179b51461048a578063bacd2e97146104b3578063cd0a314b146104de578063d0e30db014610509578063fe0d94c1146105135761012a565b80639adc96521461033b5780639b96eece14610378578063a32b2803146103b5578063a7b809eb146103e0578063b5dc40c3146104225761012a565b8063513a462a116100f2578063513a462a1461021757806380f59a65146102425780639507d39a1461027f5780639980ec86146102bc5780639ace38c2146102f95761012a565b8063025e7c271461012f5780630ec7298d1461016c57806320ea8d86146101955780632f54bf6e146101be57806343a29af2146101fb575b600080fd5b34801561013b57600080fd5b5061015660048036038101906101519190611a6c565b61052f565b6040516101639190611ada565b60405180910390f35b34801561017857600080fd5b50610193600480360381019061018e9190611c7a565b61056e565b005b3480156101a157600080fd5b506101bc60048036038101906101b79190611a6c565b610809565b005b3480156101ca57600080fd5b506101e560048036038101906101e09190611cc3565b610a43565b6040516101f29190611d0b565b60405180910390f35b61021560048036038101906102109190611ddb565b610a63565b005b34801561022357600080fd5b5061022c610c7d565b6040516102399190611e59565b60405180910390f35b34801561024e57600080fd5b5061026960048036038101906102649190611e74565b610c83565b6040516102769190611d0b565b60405180910390f35b34801561028b57600080fd5b506102a660048036038101906102a19190611a6c565b610cb2565b6040516102b39190611ff2565b60405180910390f35b3480156102c857600080fd5b506102e360048036038101906102de9190611a6c565b610e26565b6040516102f09190611e59565b60405180910390f35b34801561030557600080fd5b50610320600480360381019061031b9190611a6c565b610e5a565b6040516103329695949392919061205e565b60405180910390f35b34801561034757600080fd5b50610362600480360381019061035d9190611e74565b610f68565b60405161036f9190611d0b565b60405180910390f35b34801561038457600080fd5b5061039f600480360381019061039a9190611cc3565b610fe7565b6040516103ac9190611e59565b60405180910390f35b3480156103c157600080fd5b506103ca61100d565b6040516103d79190611e59565b60405180910390f35b3480156103ec57600080fd5b5061040760048036038101906104029190611a6c565b611013565b6040516104199695949392919061205e565b60405180910390f35b34801561042e57600080fd5b5061044960048036038101906104449190611a6c565b611121565b6040516104569190611e59565b60405180910390f35b34801561046b57600080fd5b50610474611155565b6040516104819190611e59565b60405180910390f35b34801561049657600080fd5b506104b160048036038101906104ac9190611a6c565b61115b565b005b3480156104bf57600080fd5b506104c8611375565b6040516104d59190611e59565b60405180910390f35b3480156104ea57600080fd5b506104f361137b565b6040516105009190611e59565b60405180910390f35b610511611381565b005b61052d60048036038101906105289190611a6c565b61146a565b005b6007818154811061053f57600080fd5b906000526020600020016000915054906101000a900473ffffffffffffffffffffffffffffffffffffffff1681565b6000803373ffffffffffffffffffffffffffffffffffffffff1673ffffffffffffffffffffffffffffffffffffffff16815260200190815260200160002060009054906101000a900460ff166105f9576040517f08c379a00000000000000000000000000000000000000000000000000000000081526004016105f090612112565b60405180910390fd5b60005b815181101561080557600082828151811061061a57610619612132565b5b602002602001015190506000808273ffffffffffffffffffffffffffffffffffffffff1673ffffffffffffffffffffffffffffffffffffffff16815260200190815260200160002060009054906101000a900460ff16156106b0576040517f08c379a00000000000000000000000000000000000000000000000000000000081526004016106a7906121ad565b60405180910390fd5b600073ffffffffffffffffffffffffffffffffffffffff168173ffffffffffffffffffffffffffffffffffffffff160361071f576040517f08c379a000000000000000000000000000000000000000000000000000000000815260040161071690612219565b60405180910390fd5b60016000808373ffffffffffffffffffffffffffffffffffffffff1673ffffffffffffffffffffffffffffffffffffffff16815260200190815260200160002060006101000a81548160ff0219169083151502179055506007819080600181540180825580915050600190039060005260206000200160009091909190916101000a81548173ffffffffffffffffffffffffffffffffffffffff021916908373ffffffffffffffffffffffffffffffffffffffff160217905550600160008154809291906107ec90612268565b91905055505080806107fd90612268565b9150506105fc565b5050565b6000803373ffffffffffffffffffffffffffffffffffffffff1673ffffffffffffffffffffffffffffffffffffffff16815260200190815260200160002060009054906101000a900460ff16610894576040517f08c379a000000000000000000000000000000000000000000000000000000000815260040161088b90612112565b60405180910390fd5b6001600282815481106108aa576108a9612132565b5b90600052602060002090600602016004015410156108fd576040517f08c379a00000000000000000000000000000000000000000000000000000000081526004016108f4906122fc565b60405180910390fd5b600a600082815260200190815260200160002060003373ffffffffffffffffffffffffffffffffffffffff1673ffffffffffffffffffffffffffffffffffffffff16815260200190815260200160002060009054906101000a900460ff1661099a576040517f08c379a000000000000000000000000000000000000000000000000000000000815260040161099190612368565b60405180910390fd5b6000600a600083815260200190815260200160002060003373ffffffffffffffffffffffffffffffffffffffff1673ffffffffffffffffffffffffffffffffffffffff16815260200190815260200160002060006101000a81548160ff021916908315150217905550600160028281548110610a1957610a18612132565b5b90600052602060002090600602016004016000828254610a399190612388565b9250508190555050565b60006020528060005260406000206000915054906101000a900460ff1681565b6000803373ffffffffffffffffffffffffffffffffffffffff1673ffffffffffffffffffffffffffffffffffffffff16815260200190815260200160002060009054906101000a900460ff16610aee576040517f08c379a0000000000000000000000000000000000000000000000000000000008152600401610ae590612112565b60405180910390fd5b60008211610b31576040517f08c379a0000000000000000000000000000000000000000000000000000000008152600401610b2890612408565b60405180910390fd5b60026040518060c001604052808573ffffffffffffffffffffffffffffffffffffffff1681526020018481526020018381526020016000151581526020016000815260200160001515815250908060018154018082558091505060019003906000526020600020906006020160009091909190915060008201518160000160006101000a81548173ffffffffffffffffffffffffffffffffffffffff021916908373ffffffffffffffffffffffffffffffffffffffff160217905550602082015181600101556040820151816002019080519060200190610c1392919061192f565b5060608201518160030160006101000a81548160ff0219169083151502179055506080820151816004015560a08201518160050160006101000a81548160ff021916908315150217905550505060036000815480929190610c7390612268565b9190505550505050565b60035481565b600a6020528160005260406000206020528060005260406000206000915091509054906101000a900460ff1681565b610cba6119b5565b600060028381548110610cd057610ccf612132565b5b90600052602060002090600602016040518060c00160405290816000820160009054906101000a900473ffffffffffffffffffffffffffffffffffffffff1673ffffffffffffffffffffffffffffffffffffffff1673ffffffffffffffffffffffffffffffffffffffff16815260200160018201548152602001600282018054610d5990612457565b80601f0160208091040260200160405190810160405280929190818152602001828054610d8590612457565b8015610dd25780601f10610da757610100808354040283529160200191610dd2565b820191906000526020600020905b815481529060010190602001808311610db557829003601f168201915b505050505081526020016003820160009054906101000a900460ff16151515158152602001600482015481526020016005820160009054906101000a900460ff161515151581525050905080915050919050565b60008060028381548110610e3d57610e3c612132565b5b906000526020600020906006020160010154905080915050919050565b60028181548110610e6a57600080fd5b90600052602060002090600602016000915090508060000160009054906101000a900473ffffffffffffffffffffffffffffffffffffffff1690806001015490806002018054610eb990612457565b80601f0160208091040260200160405190810160405280929190818152602001828054610ee590612457565b8015610f325780601f10610f0757610100808354040283529160200191610f32565b820191906000526020600020905b815481529060010190602001808311610f1557829003601f168201915b5050505050908060030160009054906101000a900460ff16908060040154908060050160009054906101000a900460ff16905086565b600060011515600a600085815260200190815260200160002060008473ffffffffffffffffffffffffffffffffffffffff1673ffffffffffffffffffffffffffffffffffffffff16815260200190815260200160002060009054906101000a900460ff16151503610fdc5760019050610fe1565b600090505b92915050565b6000808273ffffffffffffffffffffffffffffffffffffffff1631905080915050919050565b60085481565b6006818154811061102357600080fd5b90600052602060002090600602016000915090508060000160009054906101000a900473ffffffffffffffffffffffffffffffffffffffff169080600101549080600201805461107290612457565b80601f016020809104026020016040519081016040528092919081815260200182805461109e90612457565b80156110eb5780601f106110c0576101008083540402835291602001916110eb565b820191906000526020600020905b8154815290600101906020018083116110ce57829003601f168201915b5050505050908060030160009054906101000a900460ff16908060040154908060050160009054906101000a900460ff16905086565b6000806002838154811061113857611137612132565b5b906000526020600020906006020160040154905080915050919050565b60015481565b6000803373ffffffffffffffffffffffffffffffffffffffff1673ffffffffffffffffffffffffffffffffffffffff16815260200190815260200160002060009054906101000a900460ff166111e6576040517f08c379a00000000000000000000000000000000000000000000000000000000081526004016111dd90612112565b60405180910390fd5b60001515600282815481106111fe576111fd612132565b5b906000526020600020906006020160050160009054906101000a900460ff1615151461125f576040517f08c379a0000000000000000000000000000000000000000000000000000000008152600401611256906124fa565b60405180910390fd5b60016002828154811061127557611274612132565b5b90600052602060002090600602016004016000828254611295919061251a565b92505081905550600854600282815481106112b3576112b2612132565b5b90600052602060002090600602016004015410611372576001600282815481106112e0576112df612132565b5b906000526020600020906006020160030160006101000a81548160ff0219169083151502179055506001600a600083815260200190815260200160002060003373ffffffffffffffffffffffffffffffffffffffff1673ffffffffffffffffffffffffffffffffffffffff16815260200190815260200160002060006101000a81548160ff0219169083151502179055505b50565b60055481565b60095481565b6000803373ffffffffffffffffffffffffffffffffffffffff1673ffffffffffffffffffffffffffffffffffffffff16815260200190815260200160002060009054906101000a900460ff1661140c576040517f08c379a000000000000000000000000000000000000000000000000000000000815260040161140390612112565b60405180910390fd5b6000341161144f576040517f08c379a0000000000000000000000000000000000000000000000000000000008152600401611446906125e2565b60405180910390fd5b3460096000828254611461919061251a565b92505081905550565b6000803373ffffffffffffffffffffffffffffffffffffffff1673ffffffffffffffffffffffffffffffffffffffff16815260200190815260200160002060009054906101000a900460ff166114f5576040517f08c379a00000000000000000000000000000000000000000000000000000000081526004016114ec90612112565b60405180910390fd5b6008546002828154811061150c5761150b612132565b5b906000526020600020906006020160040154101561155f576040517f08c379a00000000000000000000000000000000000000000000000000000000081526004016115569061264e565b60405180910390fd5b600015156002828154811061157757611576612132565b5b906000526020600020906006020160050160009054906101000a900460ff161515146115d8576040517f08c379a00000000000000000000000000000000000000000000000000000000081526004016115cf906126e0565b60405180910390fd5b6000600282815481106115ee576115ed612132565b5b906000526020600020906006020160000160009054906101000a900473ffffffffffffffffffffffffffffffffffffffff16905060006002838154811061163857611637612132565b5b90600052602060002090600602016001015490508173ffffffffffffffffffffffffffffffffffffffff166108fc670de0b6b3a76400008361167a9190612700565b9081150290604051600060405180830381858888f193505050501580156116a5573d6000803e3d6000fd5b506001600560008282546116b9919061251a565b9250508190555060066040518060c00160405280600286815481106116e1576116e0612132565b5b906000526020600020906006020160000160009054906101000a900473ffffffffffffffffffffffffffffffffffffffff1673ffffffffffffffffffffffffffffffffffffffff1681526020016002868154811061174257611741612132565b5b90600052602060002090600602016001015481526020016002868154811061176d5761176c612132565b5b9060005260206000209060060201600201805461178990612457565b80601f01602080910402602001604051908101604052809291908181526020018280546117b590612457565b80156118025780601f106117d757610100808354040283529160200191611802565b820191906000526020600020905b8154815290600101906020018083116117e557829003601f168201915b505050505081526020016001151581526020016002868154811061182957611828612132565b5b906000526020600020906006020160040154815260200160011515815250908060018154018082558091505060019003906000526020600020906006020160009091909190915060008201518160000160006101000a81548173ffffffffffffffffffffffffffffffffffffffff021916908373ffffffffffffffffffffffffffffffffffffffff1602179055506020820151816001015560408201518160020190805190602001906118dd92919061192f565b5060608201518160030160006101000a81548160ff0219169083151502179055506080820151816004015560a08201518160050160006101000a81548160ff0219169083151502179055505050505050565b82805461193b90612457565b90600052602060002090601f01602090048101928261195d57600085556119a4565b82601f1061197657805160ff19168380011785556119a4565b828001600101855582156119a4579182015b828111156119a3578251825591602001919060010190611988565b5b5090506119b19190611a05565b5090565b6040518060c00160405280600073ffffffffffffffffffffffffffffffffffffffff1681526020016000815260200160608152602001600015158152602001600081526020016000151581525090565b5b80821115611a1e576000816000905550600101611a06565b5090565b6000604051905090565b600080fd5b600080fd5b6000819050919050565b611a4981611a36565b8114611a5457600080fd5b50565b600081359050611a6681611a40565b92915050565b600060208284031215611a8257611a81611a2c565b5b6000611a9084828501611a57565b91505092915050565b600073ffffffffffffffffffffffffffffffffffffffff82169050919050565b6000611ac482611a99565b9050919050565b611ad481611ab9565b82525050565b6000602082019050611aef6000830184611acb565b92915050565b600080fd5b6000601f19601f8301169050919050565b7f4e487b7100000000000000000000000000000000000000000000000000000000600052604160045260246000fd5b611b4382611afa565b810181811067ffffffffffffffff82111715611b6257611b61611b0b565b5b80604052505050565b6000611b75611a22565b9050611b818282611b3a565b919050565b600067ffffffffffffffff821115611ba157611ba0611b0b565b5b602082029050602081019050919050565b600080fd5b611bc081611ab9565b8114611bcb57600080fd5b50565b600081359050611bdd81611bb7565b92915050565b6000611bf6611bf184611b86565b611b6b565b90508083825260208201905060208402830185811115611c1957611c18611bb2565b5b835b81811015611c425780611c2e8882611bce565b845260208401935050602081019050611c1b565b5050509392505050565b600082601f830112611c6157611c60611af5565b5b8135611c71848260208601611be3565b91505092915050565b600060208284031215611c9057611c8f611a2c565b5b600082013567ffffffffffffffff811115611cae57611cad611a31565b5b611cba84828501611c4c565b91505092915050565b600060208284031215611cd957611cd8611a2c565b5b6000611ce784828501611bce565b91505092915050565b60008115159050919050565b611d0581611cf0565b82525050565b6000602082019050611d206000830184611cfc565b92915050565b600080fd5b600067ffffffffffffffff821115611d4657611d45611b0b565b5b611d4f82611afa565b9050602081019050919050565b82818337600083830152505050565b6000611d7e611d7984611d2b565b611b6b565b905082815260208101848484011115611d9a57611d99611d26565b5b611da5848285611d5c565b509392505050565b600082601f830112611dc257611dc1611af5565b5b8135611dd2848260208601611d6b565b91505092915050565b600080600060608486031215611df457611df3611a2c565b5b6000611e0286828701611bce565b9350506020611e1386828701611a57565b925050604084013567ffffffffffffffff811115611e3457611e33611a31565b5b611e4086828701611dad565b9150509250925092565b611e5381611a36565b82525050565b6000602082019050611e6e6000830184611e4a565b92915050565b60008060408385031215611e8b57611e8a611a2c565b5b6000611e9985828601611a57565b9250506020611eaa85828601611bce565b9150509250929050565b611ebd81611ab9565b82525050565b611ecc81611a36565b82525050565b600081519050919050565b600082825260208201905092915050565b60005b83811015611f0c578082015181840152602081019050611ef1565b83811115611f1b576000848401525b50505050565b6000611f2c82611ed2565b611f368185611edd565b9350611f46818560208601611eee565b611f4f81611afa565b840191505092915050565b611f6381611cf0565b82525050565b600060c083016000830151611f816000860182611eb4565b506020830151611f946020860182611ec3565b5060408301518482036040860152611fac8282611f21565b9150506060830151611fc16060860182611f5a565b506080830151611fd46080860182611ec3565b5060a0830151611fe760a0860182611f5a565b508091505092915050565b6000602082019050818103600083015261200c8184611f69565b905092915050565b600082825260208201905092915050565b600061203082611ed2565b61203a8185612014565b935061204a818560208601611eee565b61205381611afa565b840191505092915050565b600060c0820190506120736000830189611acb565b6120806020830188611e4a565b81810360408301526120928187612025565b90506120a16060830186611cfc565b6120ae6080830185611e4a565b6120bb60a0830184611cfc565b979650505050505050565b7f4f6e6c79206f776e6572732063616e20646f20746869732e0000000000000000600082015250565b60006120fc601883612014565b9150612107826120c6565b602082019050919050565b6000602082019050818103600083015261212b816120ef565b9050919050565b7f4e487b7100000000000000000000000000000000000000000000000000000000600052603260045260246000fd5b7f416c726561647920616e206f776e65722e000000000000000000000000000000600082015250565b6000612197601183612014565b91506121a282612161565b602082019050919050565b600060208201905081810360008301526121c68161218a565b9050919050565b7f4f6e6c79207265616c2061646472657373657320706c656173652e0000000000600082015250565b6000612203601b83612014565b915061220e826121cd565b602082019050919050565b60006020820190508181036000830152612232816121f6565b9050919050565b7f4e487b7100000000000000000000000000000000000000000000000000000000600052601160045260246000fd5b600061227382611a36565b91507fffffffffffffffffffffffffffffffffffffffffffffffffffffffffffffffff82036122a5576122a4612239565b5b600182019050919050565b7f4e6f20636f6e6669726d6174696f6e7300000000000000000000000000000000600082015250565b60006122e6601083612014565b91506122f1826122b0565b602082019050919050565b60006020820190508181036000830152612315816122d9565b9050919050565b7f596f75206469646e277420636f6e6669726d2100000000000000000000000000600082015250565b6000612352601383612014565b915061235d8261231c565b602082019050919050565b6000602082019050818103600083015261238181612345565b9050919050565b600061239382611a36565b915061239e83611a36565b9250828210156123b1576123b0612239565b5b828203905092915050565b7f6d75737420626520677265617465207468616e20300000000000000000000000600082015250565b60006123f2601583612014565b91506123fd826123bc565b602082019050919050565b60006020820190508181036000830152612421816123e5565b9050919050565b7f4e487b7100000000000000000000000000000000000000000000000000000000600052602260045260246000fd5b6000600282049050600182168061246f57607f821691505b60208210810361248257612481612428565b5b50919050565b7f596f752063616e277420636f6e6669726d20616e20657865637574656420747260008201527f616e73616374696f6e0000000000000000000000000000000000000000000000602082015250565b60006124e4602983612014565b91506124ef82612488565b604082019050919050565b60006020820190508181036000830152612513816124d7565b9050919050565b600061252582611a36565b915061253083611a36565b9250827fffffffffffffffffffffffffffffffffffffffffffffffffffffffffffffffff0382111561256557612564612239565b5b828201905092915050565b7f4d7573742073656e6420612076616c75652067726561746572207468616e203060008201527f2e00000000000000000000000000000000000000000000000000000000000000602082015250565b60006125cc602183612014565b91506125d782612570565b604082019050919050565b600060208201905081810360008301526125fb816125bf565b9050919050565b7f4e6f7420656e6f75676820636f6e6669726d6174696f6e732e00000000000000600082015250565b6000612638601983612014565b915061264382612602565b602082019050919050565b600060208201905081810360008301526126678161262b565b9050919050565b7f54686973207472616e73616374696f6e20686173206265656e2065786563757460008201527f656420616c726561647900000000000000000000000000000000000000000000602082015250565b60006126ca602a83612014565b91506126d58261266e565b604082019050919050565b600060208201905081810360008301526126f9816126bd565b9050919050565b600061270b82611a36565b915061271683611a36565b9250817fffffffffffffffffffffffffffffffffffffffffffffffffffffffffffffffff048311821515161561274f5761274e612239565b5b82820290509291505056fea26469706673582212200d1c7e987ecccd9771b5bb3a13ae681a429a17f85eec8287818bdd972e1bf71364736f6c634300080e0033",
  "immutableReferences": {},
  "source": "//SPDX-License-Identifier: MIT\npragma solidity ^0.8.7;\n\ncontract MultiSig {\n    //transaction struct -> to, value, isConfirmed?, numOfConfirmations, data?\n    //array of transactions\n    //mapping for owners\n    //events? Confirm; Revoke; Execute, Submit -> Transactions\n    //events: deposit\n    //constructor: list of owners (all appeneded in); minNumOfConfirmations\n    //functions: deposit; submitTransactions; confirmTransactions; executeTransactions; revokeTransactions?; getTransactions\n\n    struct Transaction {\n        address to;\n        uint256 value;\n        string data;\n        bool isConfirmed;\n        uint256 numOfConfirmations;\n        bool hasBeenExecuted;\n    }\n\n    mapping(address => bool) public isOwner;\n\n    uint256 public ownersCount;\n\n    Transaction[] public transactions;\n\n    uint256 public transCount;\n\n    mapping(uint256 => Transaction) transMap;\n\n    uint256 public executedCount;\n\n    //mapping(uint256 => Transaction) executedTrans;\n\n    Transaction[] public executedTransactions;\n\n    address[] public owners;\n\n    uint256 public minNumOfConfirmations;\n\n    uint256 public walletBalance;\n\n    //mapping mapping to check if a user confirmed transaction.\n    mapping(uint256 => mapping(address => bool)) public isConfirmed;\n\n    modifier onlyOwner() {\n        require(isOwner[msg.sender], \"Only owners can do this.\");\n        _;\n    }\n\n    constructor(uint256 _minNumOfConfirmations) {\n        //        require(_owners.length > 1, \"Must be more than one owner.\");\n        require(\n            _minNumOfConfirmations > 0,\n            \"Minimum number of confirmations needs to be more than 0.\"\n        );\n\n        transCount = 0;\n        executedCount = 0;\n        ownersCount = 0;\n        walletBalance = 0;\n        minNumOfConfirmations = _minNumOfConfirmations;\n\n        isOwner[msg.sender] = true;\n        owners.push(msg.sender);\n    }\n\n    function newOwner(address[] memory _owners) public onlyOwner {\n        for (uint256 i = 0; i < _owners.length; i++) {\n            address owner = _owners[i];\n\n            require(!isOwner[owner], \"Already an owner.\");\n            require(owner != address(0), \"Only real addresses please.\");\n\n            isOwner[owner] = true;\n            owners.push(owner);\n            ownersCount++;\n        }\n    }\n\n    //deposit payable\n    function deposit() public payable onlyOwner {\n        require(msg.value > 0, \"Must send a value greater than 0.\");\n        walletBalance += msg.value;\n        // emit depositAmount(msg.sender, msg.value);\n    }\n\n    //submitTransactions\n    function submit(\n        address _to,\n        uint256 _value,\n        string memory _data\n    ) public payable onlyOwner {\n        require(_value > 0, \"must be greate than 0\");\n\n        //uint256 txIndex = transactions.length;\n        //uint256 txIndex = transCount;\n\n        transactions.push(Transaction(_to, _value, _data, false, 0, false));\n        //Transaction memory _transaction = transMap[txIndex];\n\n        //_transaction.to = _to;\n        //_transaction.value = _value;\n        //_transaction.data = _data;\n        //_transaction.isConfirmed = false;\n        //_transaction.numOfConfirmations = 0;\n\n        //transactions.push(_transaction);\n        transCount++;\n\n        //return _transaction.data;\n    }\n\n    //confirmTransactions\n    function confirm(uint256 txIndex) public onlyOwner {\n        require(\n            transactions[txIndex].hasBeenExecuted == false,\n            \"You can't confirm an executed transaction\"\n        );\n        transactions[txIndex].numOfConfirmations += 1;\n\n        if (transactions[txIndex].numOfConfirmations >= minNumOfConfirmations) {\n            transactions[txIndex].isConfirmed = true;\n            isConfirmed[txIndex][msg.sender] = true;\n        }\n    }\n\n    //count & mapping instead of array. (TICK)\n\n    //executeTransactions\n    function execute(uint256 txIndex) public payable onlyOwner {\n        require(\n            transactions[txIndex].numOfConfirmations >= minNumOfConfirmations,\n            \"Not enough confirmations.\"\n        );\n        require(\n            transactions[txIndex].hasBeenExecuted == false,\n            \"This transaction has been executed already\"\n        );\n\n        //send value to 'to' & move to executed trans\n        address reciever = transactions[txIndex].to;\n        uint256 amount = transactions[txIndex].value;\n\n        //sent\n        payable(reciever).transfer(amount * (10**18));\n\n        executedCount += 1;\n\n        executedTransactions.push(\n            Transaction(\n                transactions[txIndex].to,\n                transactions[txIndex].value,\n                transactions[txIndex].data,\n                true,\n                transactions[txIndex].numOfConfirmations,\n                true\n            )\n        );\n\n        //remove from trans mapping\n        //delete transMap[txIndex];\n    }\n\n    //revokeTransactions\n    function revokeConfirmation(uint256 txIndex) public onlyOwner {\n        require(\n            transactions[txIndex].numOfConfirmations >= 1,\n            \"No confirmations\"\n        );\n        require(isConfirmed[txIndex][msg.sender], \"You didn't confirm!\");\n\n        isConfirmed[txIndex][msg.sender] = false;\n        transactions[txIndex].numOfConfirmations -= 1;\n    }\n\n    //getTransactions\n    function get(uint256 txIndex)\n        public\n        view\n        returns (Transaction memory transaction)\n    {\n        Transaction memory getTran = transactions[txIndex];\n\n        return getTran;\n    }\n\n    //getTransactions\n    function getConfirmations(uint256 txIndex) public view returns (uint256) {\n        uint256 getTranConfirmation = transactions[txIndex].numOfConfirmations;\n\n        return getTranConfirmation;\n    }\n\n    function getAmount(uint256 txIndex) public view returns (uint256) {\n        uint256 getTranAmount = transactions[txIndex].value;\n\n        return getTranAmount;\n    }\n\n    function getBalanceOf(address _address) public view returns (uint256) {\n        uint256 balanceOf = address(_address).balance;\n\n        return balanceOf;\n    }\n\n    function checkConfirmation(uint256 _txIndex, address _user)\n        public\n        view\n        returns (bool)\n    {\n        if (isConfirmed[_txIndex][_user] == true) {\n            return true;\n        } else {\n            return false;\n        }\n    }\n}\n",
  "sourcePath": "/Users/Dolapo/Desktop/CryptoDev/DevelopmentTutorials/MultiSig/src/contracts/MultiSig.sol",
  "compiler": {
    "name": "solc",
    "version": "0.8.14+commit.80d49f37.Emscripten.clang"
  },
  "schemaVersion": "3.4.7",
  "updatedAt": "2022-11-07T15:37:20.993Z",
  "networkType": "ethereum",
  "devdoc": {
    "kind": "dev",
    "methods": {},
    "version": 1
  },
  "userdoc": {
    "kind": "user",
    "methods": {},
    "version": 1
  }
}