{
  "contractName": "MultiSig",
  "abi": [
    {
      "inputs": [
        {
          "internalType": "uint256",
          "name": "_minNumOfConfirmations",
          "type": "uint256"
        }
      ],
      "stateMutability": "nonpayable",
      "type": "constructor"
    },
    {
      "inputs": [],
      "name": "executedCount",
      "outputs": [
        {
          "internalType": "uint256",
          "name": "",
          "type": "uint256"
        }
      ],
      "stateMutability": "view",
      "type": "function",
      "constant": true
    },
    {
      "inputs": [
        {
          "internalType": "uint256",
          "name": "",
          "type": "uint256"
        }
      ],
      "name": "executedTransactions",
      "outputs": [
        {
          "internalType": "address",
          "name": "to",
          "type": "address"
        },
        {
          "internalType": "uint256",
          "name": "value",
          "type": "uint256"
        },
        {
          "internalType": "string",
          "name": "data",
          "type": "string"
        },
        {
          "internalType": "bool",
          "name": "isConfirmed",
          "type": "bool"
        },
        {
          "internalType": "uint256",
          "name": "numOfConfirmations",
          "type": "uint256"
        },
        {
          "internalType": "bool",
          "name": "hasBeenExecuted",
          "type": "bool"
        }
      ],
      "stateMutability": "view",
      "type": "function",
      "constant": true
    },
    {
      "inputs": [
        {
          "internalType": "uint256",
          "name": "",
          "type": "uint256"
        },
        {
          "internalType": "address",
          "name": "",
          "type": "address"
        }
      ],
      "name": "isConfirmed",
      "outputs": [
        {
          "internalType": "bool",
          "name": "",
          "type": "bool"
        }
      ],
      "stateMutability": "view",
      "type": "function",
      "constant": true
    },
    {
      "inputs": [
        {
          "internalType": "address",
          "name": "",
          "type": "address"
        }
      ],
      "name": "isOwner",
      "outputs": [
        {
          "internalType": "bool",
          "name": "",
          "type": "bool"
        }
      ],
      "stateMutability": "view",
      "type": "function",
      "constant": true
    },
    {
      "inputs": [],
      "name": "minNumOfConfirmations",
      "outputs": [
        {
          "internalType": "uint256",
          "name": "",
          "type": "uint256"
        }
      ],
      "stateMutability": "view",
      "type": "function",
      "constant": true
    },
    {
      "inputs": [
        {
          "internalType": "uint256",
          "name": "",
          "type": "uint256"
        }
      ],
      "name": "owners",
      "outputs": [
        {
          "internalType": "address",
          "name": "",
          "type": "address"
        }
      ],
      "stateMutability": "view",
      "type": "function",
      "constant": true
    },
    {
      "inputs": [],
      "name": "transCount",
      "outputs": [
        {
          "internalType": "uint256",
          "name": "",
          "type": "uint256"
        }
      ],
      "stateMutability": "view",
      "type": "function",
      "constant": true
    },
    {
      "inputs": [
        {
          "internalType": "uint256",
          "name": "",
          "type": "uint256"
        }
      ],
      "name": "transactions",
      "outputs": [
        {
          "internalType": "address",
          "name": "to",
          "type": "address"
        },
        {
          "internalType": "uint256",
          "name": "value",
          "type": "uint256"
        },
        {
          "internalType": "string",
          "name": "data",
          "type": "string"
        },
        {
          "internalType": "bool",
          "name": "isConfirmed",
          "type": "bool"
        },
        {
          "internalType": "uint256",
          "name": "numOfConfirmations",
          "type": "uint256"
        },
        {
          "internalType": "bool",
          "name": "hasBeenExecuted",
          "type": "bool"
        }
      ],
      "stateMutability": "view",
      "type": "function",
      "constant": true
    },
    {
      "inputs": [],
      "name": "walletBalance",
      "outputs": [
        {
          "internalType": "uint256",
          "name": "",
          "type": "uint256"
        }
      ],
      "stateMutability": "view",
      "type": "function",
      "constant": true
    },
    {
      "inputs": [
        {
          "internalType": "address[]",
          "name": "_owners",
          "type": "address[]"
        }
      ],
      "name": "newOwner",
      "outputs": [],
      "stateMutability": "nonpayable",
      "type": "function"
    },
    {
      "inputs": [],
      "name": "deposit",
      "outputs": [],
      "stateMutability": "payable",
      "type": "function",
      "payable": true
    },
    {
      "inputs": [
        {
          "internalType": "address",
          "name": "_to",
          "type": "address"
        },
        {
          "internalType": "uint256",
          "name": "_value",
          "type": "uint256"
        },
        {
          "internalType": "string",
          "name": "_data",
          "type": "string"
        }
      ],
      "name": "submit",
      "outputs": [],
      "stateMutability": "payable",
      "type": "function",
      "payable": true
    },
    {
      "inputs": [
        {
          "internalType": "uint256",
          "name": "txIndex",
          "type": "uint256"
        }
      ],
      "name": "confirm",
      "outputs": [],
      "stateMutability": "nonpayable",
      "type": "function"
    },
    {
      "inputs": [
        {
          "internalType": "uint256",
          "name": "txIndex",
          "type": "uint256"
        }
      ],
      "name": "execute",
      "outputs": [],
      "stateMutability": "payable",
      "type": "function",
      "payable": true
    },
    {
      "inputs": [
        {
          "internalType": "uint256",
          "name": "txIndex",
          "type": "uint256"
        }
      ],
      "name": "revokeConfirmation",
      "outputs": [],
      "stateMutability": "nonpayable",
      "type": "function"
    },
    {
      "inputs": [
        {
          "internalType": "uint256",
          "name": "txIndex",
          "type": "uint256"
        }
      ],
      "name": "get",
      "outputs": [
        {
          "components": [
            {
              "internalType": "address",
              "name": "to",
              "type": "address"
            },
            {
              "internalType": "uint256",
              "name": "value",
              "type": "uint256"
            },
            {
              "internalType": "string",
              "name": "data",
              "type": "string"
            },
            {
              "internalType": "bool",
              "name": "isConfirmed",
              "type": "bool"
            },
            {
              "internalType": "uint256",
              "name": "numOfConfirmations",
              "type": "uint256"
            },
            {
              "internalType": "bool",
              "name": "hasBeenExecuted",
              "type": "bool"
            }
          ],
          "internalType": "struct MultiSig.Transaction",
          "name": "transaction",
          "type": "tuple"
        }
      ],
      "stateMutability": "view",
      "type": "function",
      "constant": true
    },
    {
      "inputs": [
        {
          "internalType": "uint256",
          "name": "txIndex",
          "type": "uint256"
        }
      ],
      "name": "getConfirmations",
      "outputs": [
        {
          "internalType": "uint256",
          "name": "",
          "type": "uint256"
        }
      ],
      "stateMutability": "view",
      "type": "function",
      "constant": true
    },
    {
      "inputs": [
        {
          "internalType": "uint256",
          "name": "txIndex",
          "type": "uint256"
        }
      ],
      "name": "getAmount",
      "outputs": [
        {
          "internalType": "uint256",
          "name": "",
          "type": "uint256"
        }
      ],
      "stateMutability": "view",
      "type": "function",
      "constant": true
    },
    {
      "inputs": [
        {
          "internalType": "address",
          "name": "_address",
          "type": "address"
        }
      ],
      "name": "getBalanceOf",
      "outputs": [
        {
          "internalType": "uint256",
          "name": "",
          "type": "uint256"
        }
      ],
      "stateMutability": "view",
      "type": "function",
      "constant": true
    }
  ],
  "bytecode": "0x60806040523480156200001157600080fd5b50604051620028ea380380620028ea83398181016040528101906200003791906200018e565b600081116200007d576040517f08c379a0000000000000000000000000000000000000000000000000000000008152600401620000749062000247565b60405180910390fd5b6000600281905550600060048190555060016000803373ffffffffffffffffffffffffffffffffffffffff1673ffffffffffffffffffffffffffffffffffffffff16815260200190815260200160002060006101000a81548160ff0219169083151502179055506006339080600181540180825580915050600190039060005260206000200160009091909190916101000a81548173ffffffffffffffffffffffffffffffffffffffff021916908373ffffffffffffffffffffffffffffffffffffffff1602179055505062000269565b600080fd5b6000819050919050565b620001688162000153565b81146200017457600080fd5b50565b60008151905062000188816200015d565b92915050565b600060208284031215620001a757620001a66200014e565b5b6000620001b78482850162000177565b91505092915050565b600082825260208201905092915050565b7f4d696e696d756d206e756d626572206f6620636f6e6669726d6174696f6e732060008201527f6e6565647320746f206265206d6f7265207468616e20302e0000000000000000602082015250565b60006200022f603883620001c0565b91506200023c82620001d1565b604082019050919050565b60006020820190508181036000830152620002628162000220565b9050919050565b61267180620002796000396000f3fe6080604052600436106101145760003560e01c80639ace38c2116100a0578063ba0179b511610064578063ba0179b51461040c578063bacd2e9714610435578063cd0a314b14610460578063d0e30db01461048b578063fe0d94c11461049557610114565b80639ace38c2146102e35780639b96eece14610325578063a32b280314610362578063a7b809eb1461038d578063b5dc40c3146103cf57610114565b806343a29af2116100e757806343a29af2146101e5578063513a462a1461020157806380f59a651461022c5780639507d39a146102695780639980ec86146102a657610114565b8063025e7c27146101195780630ec7298d1461015657806320ea8d861461017f5780632f54bf6e146101a8575b600080fd5b34801561012557600080fd5b50610140600480360381019061013b919061194d565b6104b1565b60405161014d91906119bb565b60405180910390f35b34801561016257600080fd5b5061017d60048036038101906101789190611b5b565b6104f0565b005b34801561018b57600080fd5b506101a660048036038101906101a1919061194d565b610773565b005b3480156101b457600080fd5b506101cf60048036038101906101ca9190611ba4565b6109ab565b6040516101dc9190611bec565b60405180910390f35b6101ff60048036038101906101fa9190611cbc565b6109cb565b005b34801561020d57600080fd5b50610216610be5565b6040516102239190611d3a565b60405180910390f35b34801561023857600080fd5b50610253600480360381019061024e9190611d55565b610beb565b6040516102609190611bec565b60405180910390f35b34801561027557600080fd5b50610290600480360381019061028b919061194d565b610c1a565b60405161029d9190611ed3565b60405180910390f35b3480156102b257600080fd5b506102cd60048036038101906102c8919061194d565b610d8e565b6040516102da9190611d3a565b60405180910390f35b3480156102ef57600080fd5b5061030a6004803603810190610305919061194d565b610dc2565b60405161031c96959493929190611f3f565b60405180910390f35b34801561033157600080fd5b5061034c60048036038101906103479190611ba4565b610ed0565b6040516103599190611d3a565b60405180910390f35b34801561036e57600080fd5b50610377610ef6565b6040516103849190611d3a565b60405180910390f35b34801561039957600080fd5b506103b460048036038101906103af919061194d565b610efc565b6040516103c696959493929190611f3f565b60405180910390f35b3480156103db57600080fd5b506103f660048036038101906103f1919061194d565b61100a565b6040516104039190611d3a565b60405180910390f35b34801561041857600080fd5b50610433600480360381019061042e919061194d565b61103e565b005b34801561044157600080fd5b5061044a611256565b6040516104579190611d3a565b60405180910390f35b34801561046c57600080fd5b5061047561125c565b6040516104829190611d3a565b60405180910390f35b610493611262565b005b6104af60048036038101906104aa919061194d565b61134b565b005b600681815481106104c157600080fd5b906000526020600020016000915054906101000a900473ffffffffffffffffffffffffffffffffffffffff1681565b6000803373ffffffffffffffffffffffffffffffffffffffff1673ffffffffffffffffffffffffffffffffffffffff16815260200190815260200160002060009054906101000a900460ff1661057b576040517f08c379a000000000000000000000000000000000000000000000000000000000815260040161057290611ff3565b60405180910390fd5b60005b815181101561076f57600082828151811061059c5761059b612013565b5b602002602001015190506000808273ffffffffffffffffffffffffffffffffffffffff1673ffffffffffffffffffffffffffffffffffffffff16815260200190815260200160002060009054906101000a900460ff1615610632576040517f08c379a00000000000000000000000000000000000000000000000000000000081526004016106299061208e565b60405180910390fd5b600073ffffffffffffffffffffffffffffffffffffffff168173ffffffffffffffffffffffffffffffffffffffff16036106a1576040517f08c379a0000000000000000000000000000000000000000000000000000000008152600401610698906120fa565b60405180910390fd5b60016000808373ffffffffffffffffffffffffffffffffffffffff1673ffffffffffffffffffffffffffffffffffffffff16815260200190815260200160002060006101000a81548160ff0219169083151502179055506006819080600181540180825580915050600190039060005260206000200160009091909190916101000a81548173ffffffffffffffffffffffffffffffffffffffff021916908373ffffffffffffffffffffffffffffffffffffffff16021790555050808061076790612149565b91505061057e565b5050565b6000803373ffffffffffffffffffffffffffffffffffffffff1673ffffffffffffffffffffffffffffffffffffffff16815260200190815260200160002060009054906101000a900460ff166107fe576040517f08c379a00000000000000000000000000000000000000000000000000000000081526004016107f590611ff3565b60405180910390fd5b600180828154811061081357610812612013565b5b9060005260206000209060060201600401541015610866576040517f08c379a000000000000000000000000000000000000000000000000000000000815260040161085d906121dd565b60405180910390fd5b6009600082815260200190815260200160002060003373ffffffffffffffffffffffffffffffffffffffff1673ffffffffffffffffffffffffffffffffffffffff16815260200190815260200160002060009054906101000a900460ff16610903576040517f08c379a00000000000000000000000000000000000000000000000000000000081526004016108fa90612249565b60405180910390fd5b60006009600083815260200190815260200160002060003373ffffffffffffffffffffffffffffffffffffffff1673ffffffffffffffffffffffffffffffffffffffff16815260200190815260200160002060006101000a81548160ff021916908315150217905550600180828154811061098157610980612013565b5b906000526020600020906006020160040160008282546109a19190612269565b9250508190555050565b60006020528060005260406000206000915054906101000a900460ff1681565b6000803373ffffffffffffffffffffffffffffffffffffffff1673ffffffffffffffffffffffffffffffffffffffff16815260200190815260200160002060009054906101000a900460ff16610a56576040517f08c379a0000000000000000000000000000000000000000000000000000000008152600401610a4d90611ff3565b60405180910390fd5b60008211610a99576040517f08c379a0000000000000000000000000000000000000000000000000000000008152600401610a90906122e9565b60405180910390fd5b60016040518060c001604052808573ffffffffffffffffffffffffffffffffffffffff1681526020018481526020018381526020016000151581526020016000815260200160001515815250908060018154018082558091505060019003906000526020600020906006020160009091909190915060008201518160000160006101000a81548173ffffffffffffffffffffffffffffffffffffffff021916908373ffffffffffffffffffffffffffffffffffffffff160217905550602082015181600101556040820151816002019080519060200190610b7b929190611810565b5060608201518160030160006101000a81548160ff0219169083151502179055506080820151816004015560a08201518160050160006101000a81548160ff021916908315150217905550505060026000815480929190610bdb90612149565b9190505550505050565b60025481565b60096020528160005260406000206020528060005260406000206000915091509054906101000a900460ff1681565b610c22611896565b600060018381548110610c3857610c37612013565b5b90600052602060002090600602016040518060c00160405290816000820160009054906101000a900473ffffffffffffffffffffffffffffffffffffffff1673ffffffffffffffffffffffffffffffffffffffff1673ffffffffffffffffffffffffffffffffffffffff16815260200160018201548152602001600282018054610cc190612338565b80601f0160208091040260200160405190810160405280929190818152602001828054610ced90612338565b8015610d3a5780601f10610d0f57610100808354040283529160200191610d3a565b820191906000526020600020905b815481529060010190602001808311610d1d57829003601f168201915b505050505081526020016003820160009054906101000a900460ff16151515158152602001600482015481526020016005820160009054906101000a900460ff161515151581525050905080915050919050565b60008060018381548110610da557610da4612013565b5b906000526020600020906006020160010154905080915050919050565b60018181548110610dd257600080fd5b90600052602060002090600602016000915090508060000160009054906101000a900473ffffffffffffffffffffffffffffffffffffffff1690806001015490806002018054610e2190612338565b80601f0160208091040260200160405190810160405280929190818152602001828054610e4d90612338565b8015610e9a5780601f10610e6f57610100808354040283529160200191610e9a565b820191906000526020600020905b815481529060010190602001808311610e7d57829003601f168201915b5050505050908060030160009054906101000a900460ff16908060040154908060050160009054906101000a900460ff16905086565b6000808273ffffffffffffffffffffffffffffffffffffffff1631905080915050919050565b60075481565b60058181548110610f0c57600080fd5b90600052602060002090600602016000915090508060000160009054906101000a900473ffffffffffffffffffffffffffffffffffffffff1690806001015490806002018054610f5b90612338565b80601f0160208091040260200160405190810160405280929190818152602001828054610f8790612338565b8015610fd45780601f10610fa957610100808354040283529160200191610fd4565b820191906000526020600020905b815481529060010190602001808311610fb757829003601f168201915b5050505050908060030160009054906101000a900460ff16908060040154908060050160009054906101000a900460ff16905086565b6000806001838154811061102157611020612013565b5b906000526020600020906006020160040154905080915050919050565b6000803373ffffffffffffffffffffffffffffffffffffffff1673ffffffffffffffffffffffffffffffffffffffff16815260200190815260200160002060009054906101000a900460ff166110c9576040517f08c379a00000000000000000000000000000000000000000000000000000000081526004016110c090611ff3565b60405180910390fd5b60001515600182815481106110e1576110e0612013565b5b906000526020600020906006020160050160009054906101000a900460ff16151514611142576040517f08c379a0000000000000000000000000000000000000000000000000000000008152600401611139906123db565b60405180910390fd5b600180828154811061115757611156612013565b5b9060005260206000209060060201600401600082825461117791906123fb565b925050819055506007546001828154811061119557611194612013565b5b906000526020600020906006020160040154106112535760018082815481106111c1576111c0612013565b5b906000526020600020906006020160030160006101000a81548160ff02191690831515021790555060016009600083815260200190815260200160002060003373ffffffffffffffffffffffffffffffffffffffff1673ffffffffffffffffffffffffffffffffffffffff16815260200190815260200160002060006101000a81548160ff0219169083151502179055505b50565b60045481565b60085481565b6000803373ffffffffffffffffffffffffffffffffffffffff1673ffffffffffffffffffffffffffffffffffffffff16815260200190815260200160002060009054906101000a900460ff166112ed576040517f08c379a00000000000000000000000000000000000000000000000000000000081526004016112e490611ff3565b60405180910390fd5b60003411611330576040517f08c379a0000000000000000000000000000000000000000000000000000000008152600401611327906124c3565b60405180910390fd5b346008600082825461134291906123fb565b92505081905550565b6000803373ffffffffffffffffffffffffffffffffffffffff1673ffffffffffffffffffffffffffffffffffffffff16815260200190815260200160002060009054906101000a900460ff166113d6576040517f08c379a00000000000000000000000000000000000000000000000000000000081526004016113cd90611ff3565b60405180910390fd5b600754600182815481106113ed576113ec612013565b5b9060005260206000209060060201600401541015611440576040517f08c379a00000000000000000000000000000000000000000000000000000000081526004016114379061252f565b60405180910390fd5b600015156001828154811061145857611457612013565b5b906000526020600020906006020160050160009054906101000a900460ff161515146114b9576040517f08c379a00000000000000000000000000000000000000000000000000000000081526004016114b0906125c1565b60405180910390fd5b6000600182815481106114cf576114ce612013565b5b906000526020600020906006020160000160009054906101000a900473ffffffffffffffffffffffffffffffffffffffff16905060006001838154811061151957611518612013565b5b90600052602060002090600602016001015490508173ffffffffffffffffffffffffffffffffffffffff166108fc670de0b6b3a76400008361155b91906125e1565b9081150290604051600060405180830381858888f19350505050158015611586573d6000803e3d6000fd5b5060016004600082825461159a91906123fb565b9250508190555060056040518060c00160405280600186815481106115c2576115c1612013565b5b906000526020600020906006020160000160009054906101000a900473ffffffffffffffffffffffffffffffffffffffff1673ffffffffffffffffffffffffffffffffffffffff1681526020016001868154811061162357611622612013565b5b90600052602060002090600602016001015481526020016001868154811061164e5761164d612013565b5b9060005260206000209060060201600201805461166a90612338565b80601f016020809104026020016040519081016040528092919081815260200182805461169690612338565b80156116e35780601f106116b8576101008083540402835291602001916116e3565b820191906000526020600020905b8154815290600101906020018083116116c657829003601f168201915b505050505081526020016001151581526020016001868154811061170a57611709612013565b5b906000526020600020906006020160040154815260200160011515815250908060018154018082558091505060019003906000526020600020906006020160009091909190915060008201518160000160006101000a81548173ffffffffffffffffffffffffffffffffffffffff021916908373ffffffffffffffffffffffffffffffffffffffff1602179055506020820151816001015560408201518160020190805190602001906117be929190611810565b5060608201518160030160006101000a81548160ff0219169083151502179055506080820151816004015560a08201518160050160006101000a81548160ff0219169083151502179055505050505050565b82805461181c90612338565b90600052602060002090601f01602090048101928261183e5760008555611885565b82601f1061185757805160ff1916838001178555611885565b82800160010185558215611885579182015b82811115611884578251825591602001919060010190611869565b5b50905061189291906118e6565b5090565b6040518060c00160405280600073ffffffffffffffffffffffffffffffffffffffff1681526020016000815260200160608152602001600015158152602001600081526020016000151581525090565b5b808211156118ff5760008160009055506001016118e7565b5090565b6000604051905090565b600080fd5b600080fd5b6000819050919050565b61192a81611917565b811461193557600080fd5b50565b60008135905061194781611921565b92915050565b6000602082840312156119635761196261190d565b5b600061197184828501611938565b91505092915050565b600073ffffffffffffffffffffffffffffffffffffffff82169050919050565b60006119a58261197a565b9050919050565b6119b58161199a565b82525050565b60006020820190506119d060008301846119ac565b92915050565b600080fd5b6000601f19601f8301169050919050565b7f4e487b7100000000000000000000000000000000000000000000000000000000600052604160045260246000fd5b611a24826119db565b810181811067ffffffffffffffff82111715611a4357611a426119ec565b5b80604052505050565b6000611a56611903565b9050611a628282611a1b565b919050565b600067ffffffffffffffff821115611a8257611a816119ec565b5b602082029050602081019050919050565b600080fd5b611aa18161199a565b8114611aac57600080fd5b50565b600081359050611abe81611a98565b92915050565b6000611ad7611ad284611a67565b611a4c565b90508083825260208201905060208402830185811115611afa57611af9611a93565b5b835b81811015611b235780611b0f8882611aaf565b845260208401935050602081019050611afc565b5050509392505050565b600082601f830112611b4257611b416119d6565b5b8135611b52848260208601611ac4565b91505092915050565b600060208284031215611b7157611b7061190d565b5b600082013567ffffffffffffffff811115611b8f57611b8e611912565b5b611b9b84828501611b2d565b91505092915050565b600060208284031215611bba57611bb961190d565b5b6000611bc884828501611aaf565b91505092915050565b60008115159050919050565b611be681611bd1565b82525050565b6000602082019050611c016000830184611bdd565b92915050565b600080fd5b600067ffffffffffffffff821115611c2757611c266119ec565b5b611c30826119db565b9050602081019050919050565b82818337600083830152505050565b6000611c5f611c5a84611c0c565b611a4c565b905082815260208101848484011115611c7b57611c7a611c07565b5b611c86848285611c3d565b509392505050565b600082601f830112611ca357611ca26119d6565b5b8135611cb3848260208601611c4c565b91505092915050565b600080600060608486031215611cd557611cd461190d565b5b6000611ce386828701611aaf565b9350506020611cf486828701611938565b925050604084013567ffffffffffffffff811115611d1557611d14611912565b5b611d2186828701611c8e565b9150509250925092565b611d3481611917565b82525050565b6000602082019050611d4f6000830184611d2b565b92915050565b60008060408385031215611d6c57611d6b61190d565b5b6000611d7a85828601611938565b9250506020611d8b85828601611aaf565b9150509250929050565b611d9e8161199a565b82525050565b611dad81611917565b82525050565b600081519050919050565b600082825260208201905092915050565b60005b83811015611ded578082015181840152602081019050611dd2565b83811115611dfc576000848401525b50505050565b6000611e0d82611db3565b611e178185611dbe565b9350611e27818560208601611dcf565b611e30816119db565b840191505092915050565b611e4481611bd1565b82525050565b600060c083016000830151611e626000860182611d95565b506020830151611e756020860182611da4565b5060408301518482036040860152611e8d8282611e02565b9150506060830151611ea26060860182611e3b565b506080830151611eb56080860182611da4565b5060a0830151611ec860a0860182611e3b565b508091505092915050565b60006020820190508181036000830152611eed8184611e4a565b905092915050565b600082825260208201905092915050565b6000611f1182611db3565b611f1b8185611ef5565b9350611f2b818560208601611dcf565b611f34816119db565b840191505092915050565b600060c082019050611f5460008301896119ac565b611f616020830188611d2b565b8181036040830152611f738187611f06565b9050611f826060830186611bdd565b611f8f6080830185611d2b565b611f9c60a0830184611bdd565b979650505050505050565b7f4f6e6c79206f776e6572732063616e20646f20746869732e0000000000000000600082015250565b6000611fdd601883611ef5565b9150611fe882611fa7565b602082019050919050565b6000602082019050818103600083015261200c81611fd0565b9050919050565b7f4e487b7100000000000000000000000000000000000000000000000000000000600052603260045260246000fd5b7f416c726561647920616e206f776e65722e000000000000000000000000000000600082015250565b6000612078601183611ef5565b915061208382612042565b602082019050919050565b600060208201905081810360008301526120a78161206b565b9050919050565b7f4f6e6c79207265616c2061646472657373657320706c656173652e0000000000600082015250565b60006120e4601b83611ef5565b91506120ef826120ae565b602082019050919050565b60006020820190508181036000830152612113816120d7565b9050919050565b7f4e487b7100000000000000000000000000000000000000000000000000000000600052601160045260246000fd5b600061215482611917565b91507fffffffffffffffffffffffffffffffffffffffffffffffffffffffffffffffff82036121865761218561211a565b5b600182019050919050565b7f4e6f20636f6e6669726d6174696f6e7300000000000000000000000000000000600082015250565b60006121c7601083611ef5565b91506121d282612191565b602082019050919050565b600060208201905081810360008301526121f6816121ba565b9050919050565b7f596f75206469646e277420636f6e6669726d2100000000000000000000000000600082015250565b6000612233601383611ef5565b915061223e826121fd565b602082019050919050565b6000602082019050818103600083015261226281612226565b9050919050565b600061227482611917565b915061227f83611917565b9250828210156122925761229161211a565b5b828203905092915050565b7f6d75737420626520677265617465207468616e20300000000000000000000000600082015250565b60006122d3601583611ef5565b91506122de8261229d565b602082019050919050565b60006020820190508181036000830152612302816122c6565b9050919050565b7f4e487b7100000000000000000000000000000000000000000000000000000000600052602260045260246000fd5b6000600282049050600182168061235057607f821691505b60208210810361236357612362612309565b5b50919050565b7f596f752063616e277420636f6e6669726d20616e20657865637574656420747260008201527f616e73616374696f6e0000000000000000000000000000000000000000000000602082015250565b60006123c5602983611ef5565b91506123d082612369565b604082019050919050565b600060208201905081810360008301526123f4816123b8565b9050919050565b600061240682611917565b915061241183611917565b9250827fffffffffffffffffffffffffffffffffffffffffffffffffffffffffffffffff038211156124465761244561211a565b5b828201905092915050565b7f4d7573742073656e6420612076616c75652067726561746572207468616e203060008201527f2e00000000000000000000000000000000000000000000000000000000000000602082015250565b60006124ad602183611ef5565b91506124b882612451565b604082019050919050565b600060208201905081810360008301526124dc816124a0565b9050919050565b7f4e6f7420656e6f75676820636f6e6669726d6174696f6e732e00000000000000600082015250565b6000612519601983611ef5565b9150612524826124e3565b602082019050919050565b600060208201905081810360008301526125488161250c565b9050919050565b7f54686973207472616e73616374696f6e20686173206265656e2065786563757460008201527f656420616c726561647900000000000000000000000000000000000000000000602082015250565b60006125ab602a83611ef5565b91506125b68261254f565b604082019050919050565b600060208201905081810360008301526125da8161259e565b9050919050565b60006125ec82611917565b91506125f783611917565b9250817fffffffffffffffffffffffffffffffffffffffffffffffffffffffffffffffff04831182151516156126305761262f61211a565b5b82820290509291505056fea2646970667358221220ad2bc304bd0ac66ff37b0b068cf51013e951717eed2884d6a38364c960a97a9f64736f6c634300080e0033",
  "immutableReferences": {},
  "source": "//SPDX-License-Identifier: MIT\npragma solidity ^0.8.7;\n\ncontract MultiSig {\n    //transaction struct -> to, value, isConfirmed?, numOfConfirmations, data?\n    //array of transactions\n    //mapping for owners\n    //events? Confirm; Revoke; Execute, Submit -> Transactions\n    //events: deposit\n    //constructor: list of owners (all appeneded in); minNumOfConfirmations\n    //functions: deposit; submitTransactions; confirmTransactions; executeTransactions; revokeTransactions?; getTransactions\n\n    struct Transaction {\n        address to;\n        uint256 value;\n        string data;\n        bool isConfirmed;\n        uint256 numOfConfirmations;\n        bool hasBeenExecuted;\n    }\n\n    mapping(address => bool) public isOwner;\n\n    Transaction[] public transactions;\n\n    uint256 public transCount;\n\n    mapping(uint256 => Transaction) transMap;\n\n    uint256 public executedCount;\n\n    //mapping(uint256 => Transaction) executedTrans;\n\n    Transaction[] public executedTransactions;\n\n    address[] public owners;\n\n    uint256 public minNumOfConfirmations;\n\n    uint256 public walletBalance;\n\n    //mapping mapping to check if a user confirmed transaction.\n    mapping(uint256 => mapping(address => bool)) public isConfirmed;\n\n    modifier onlyOwner() {\n        require(isOwner[msg.sender], \"Only owners can do this.\");\n        _;\n    }\n\n    constructor(uint256 _minNumOfConfirmations) {\n        //        require(_owners.length > 1, \"Must be more than one owner.\");\n        require(\n            _minNumOfConfirmations > 0,\n            \"Minimum number of confirmations needs to be more than 0.\"\n        );\n\n        transCount = 0;\n        executedCount = 0;\n\n        isOwner[msg.sender] = true;\n        owners.push(msg.sender);\n    }\n\n    function newOwner(address[] memory _owners) public onlyOwner {\n        for (uint256 i = 0; i < _owners.length; i++) {\n            address owner = _owners[i];\n\n            require(!isOwner[owner], \"Already an owner.\");\n            require(owner != address(0), \"Only real addresses please.\");\n\n            isOwner[owner] = true;\n            owners.push(owner);\n        }\n    }\n\n    //deposit payable\n    function deposit() public payable onlyOwner {\n        require(msg.value > 0, \"Must send a value greater than 0.\");\n        walletBalance += msg.value;\n        // emit depositAmount(msg.sender, msg.value);\n    }\n\n    //submitTransactions\n    function submit(\n        address _to,\n        uint256 _value,\n        string memory _data\n    ) public payable onlyOwner {\n        require(_value > 0, \"must be greate than 0\");\n\n        //uint256 txIndex = transactions.length;\n        //uint256 txIndex = transCount;\n\n        transactions.push(Transaction(_to, _value, _data, false, 0, false));\n        //Transaction memory _transaction = transMap[txIndex];\n\n        //_transaction.to = _to;\n        //_transaction.value = _value;\n        //_transaction.data = _data;\n        //_transaction.isConfirmed = false;\n        //_transaction.numOfConfirmations = 0;\n\n        //transactions.push(_transaction);\n        transCount++;\n\n        //return _transaction.data;\n    }\n\n    //confirmTransactions\n    function confirm(uint256 txIndex) public onlyOwner {\n        require(\n            transactions[txIndex].hasBeenExecuted == false,\n            \"You can't confirm an executed transaction\"\n        );\n        transactions[txIndex].numOfConfirmations += 1;\n\n        if (transactions[txIndex].numOfConfirmations >= minNumOfConfirmations) {\n            transactions[txIndex].isConfirmed = true;\n            isConfirmed[txIndex][msg.sender] = true;\n        }\n    }\n\n    //count & mapping instead of array. (TICK)\n\n    //executeTransactions\n    function execute(uint256 txIndex) public payable onlyOwner {\n        require(\n            transactions[txIndex].numOfConfirmations >= minNumOfConfirmations,\n            \"Not enough confirmations.\"\n        );\n        require(\n            transactions[txIndex].hasBeenExecuted == false,\n            \"This transaction has been executed already\"\n        );\n\n        //send value to 'to' & move to executed trans\n        address reciever = transactions[txIndex].to;\n        uint256 amount = transactions[txIndex].value;\n\n        //sent\n        payable(reciever).transfer(amount * (10**18));\n\n        executedCount += 1;\n\n        executedTransactions.push(\n            Transaction(\n                transactions[txIndex].to,\n                transactions[txIndex].value,\n                transactions[txIndex].data,\n                true,\n                transactions[txIndex].numOfConfirmations,\n                true\n            )\n        );\n\n        //remove from trans mapping\n        //delete transMap[txIndex];\n    }\n\n    //revokeTransactions\n    function revokeConfirmation(uint256 txIndex) public onlyOwner {\n        require(\n            transactions[txIndex].numOfConfirmations >= 1,\n            \"No confirmations\"\n        );\n        require(isConfirmed[txIndex][msg.sender], \"You didn't confirm!\");\n\n        isConfirmed[txIndex][msg.sender] = false;\n        transactions[txIndex].numOfConfirmations -= 1;\n    }\n\n    //getTransactions\n    function get(uint256 txIndex)\n        public\n        view\n        returns (Transaction memory transaction)\n    {\n        Transaction memory getTran = transactions[txIndex];\n\n        return getTran;\n    }\n\n    //getTransactions\n    function getConfirmations(uint256 txIndex) public view returns (uint256) {\n        uint256 getTranConfirmation = transactions[txIndex].numOfConfirmations;\n\n        return getTranConfirmation;\n    }\n\n    function getAmount(uint256 txIndex) public view returns (uint256) {\n        uint256 getTranAmount = transactions[txIndex].value;\n\n        return getTranAmount;\n    }\n\n    function getBalanceOf(address _address) public view returns (uint256) {\n        uint256 balanceOf = address(_address).balance;\n\n        return balanceOf;\n    }\n}\n",
  "sourcePath": "/Users/Dolapo/Desktop/CryptoDev/DevelopmentTutorials/MultiSig/src/contracts/MultiSig.sol",
  "compiler": {
    "name": "solc",
    "version": "0.8.14+commit.80d49f37.Emscripten.clang"
  },
  "schemaVersion": "3.4.7",
  "updatedAt": "2022-10-17T14:53:15.334Z",
  "networkType": "ethereum",
  "devdoc": {
    "kind": "dev",
    "methods": {},
    "version": 1
  },
  "userdoc": {
    "kind": "user",
    "methods": {},
    "version": 1
  }
}