{
  "contractName": "MultiSig",
  "abi": [
    {
      "inputs": [
        {
          "internalType": "uint256",
          "name": "_minNumOfConfirmations",
          "type": "uint256"
        }
      ],
      "stateMutability": "nonpayable",
      "type": "constructor"
    },
    {
      "inputs": [],
      "name": "executedCount",
      "outputs": [
        {
          "internalType": "uint256",
          "name": "",
          "type": "uint256"
        }
      ],
      "stateMutability": "view",
      "type": "function",
      "constant": true
    },
    {
      "inputs": [
        {
          "internalType": "uint256",
          "name": "",
          "type": "uint256"
        }
      ],
      "name": "executedTransactions",
      "outputs": [
        {
          "internalType": "address",
          "name": "to",
          "type": "address"
        },
        {
          "internalType": "uint256",
          "name": "value",
          "type": "uint256"
        },
        {
          "internalType": "string",
          "name": "data",
          "type": "string"
        },
        {
          "internalType": "bool",
          "name": "isConfirmed",
          "type": "bool"
        },
        {
          "internalType": "uint256",
          "name": "numOfConfirmations",
          "type": "uint256"
        },
        {
          "internalType": "bool",
          "name": "hasBeenExecuted",
          "type": "bool"
        }
      ],
      "stateMutability": "view",
      "type": "function",
      "constant": true
    },
    {
      "inputs": [
        {
          "internalType": "uint256",
          "name": "",
          "type": "uint256"
        },
        {
          "internalType": "address",
          "name": "",
          "type": "address"
        }
      ],
      "name": "isConfirmed",
      "outputs": [
        {
          "internalType": "bool",
          "name": "",
          "type": "bool"
        }
      ],
      "stateMutability": "view",
      "type": "function",
      "constant": true
    },
    {
      "inputs": [
        {
          "internalType": "address",
          "name": "",
          "type": "address"
        }
      ],
      "name": "isOwner",
      "outputs": [
        {
          "internalType": "bool",
          "name": "",
          "type": "bool"
        }
      ],
      "stateMutability": "view",
      "type": "function",
      "constant": true
    },
    {
      "inputs": [],
      "name": "minNumOfConfirmations",
      "outputs": [
        {
          "internalType": "uint256",
          "name": "",
          "type": "uint256"
        }
      ],
      "stateMutability": "view",
      "type": "function",
      "constant": true
    },
    {
      "inputs": [
        {
          "internalType": "uint256",
          "name": "",
          "type": "uint256"
        }
      ],
      "name": "owners",
      "outputs": [
        {
          "internalType": "address",
          "name": "",
          "type": "address"
        }
      ],
      "stateMutability": "view",
      "type": "function",
      "constant": true
    },
    {
      "inputs": [],
      "name": "transCount",
      "outputs": [
        {
          "internalType": "uint256",
          "name": "",
          "type": "uint256"
        }
      ],
      "stateMutability": "view",
      "type": "function",
      "constant": true
    },
    {
      "inputs": [
        {
          "internalType": "uint256",
          "name": "",
          "type": "uint256"
        }
      ],
      "name": "transactions",
      "outputs": [
        {
          "internalType": "address",
          "name": "to",
          "type": "address"
        },
        {
          "internalType": "uint256",
          "name": "value",
          "type": "uint256"
        },
        {
          "internalType": "string",
          "name": "data",
          "type": "string"
        },
        {
          "internalType": "bool",
          "name": "isConfirmed",
          "type": "bool"
        },
        {
          "internalType": "uint256",
          "name": "numOfConfirmations",
          "type": "uint256"
        },
        {
          "internalType": "bool",
          "name": "hasBeenExecuted",
          "type": "bool"
        }
      ],
      "stateMutability": "view",
      "type": "function",
      "constant": true
    },
    {
      "inputs": [],
      "name": "walletBalance",
      "outputs": [
        {
          "internalType": "uint256",
          "name": "",
          "type": "uint256"
        }
      ],
      "stateMutability": "view",
      "type": "function",
      "constant": true
    },
    {
      "inputs": [
        {
          "internalType": "address[]",
          "name": "_owners",
          "type": "address[]"
        }
      ],
      "name": "newOwner",
      "outputs": [],
      "stateMutability": "nonpayable",
      "type": "function"
    },
    {
      "inputs": [],
      "name": "deposit",
      "outputs": [],
      "stateMutability": "payable",
      "type": "function",
      "payable": true
    },
    {
      "inputs": [
        {
          "internalType": "address",
          "name": "_to",
          "type": "address"
        },
        {
          "internalType": "uint256",
          "name": "_value",
          "type": "uint256"
        },
        {
          "internalType": "string",
          "name": "_data",
          "type": "string"
        }
      ],
      "name": "submit",
      "outputs": [],
      "stateMutability": "payable",
      "type": "function",
      "payable": true
    },
    {
      "inputs": [
        {
          "internalType": "uint256",
          "name": "txIndex",
          "type": "uint256"
        }
      ],
      "name": "confirm",
      "outputs": [],
      "stateMutability": "nonpayable",
      "type": "function"
    },
    {
      "inputs": [
        {
          "internalType": "uint256",
          "name": "txIndex",
          "type": "uint256"
        }
      ],
      "name": "execute",
      "outputs": [],
      "stateMutability": "payable",
      "type": "function",
      "payable": true
    },
    {
      "inputs": [
        {
          "internalType": "uint256",
          "name": "txIndex",
          "type": "uint256"
        }
      ],
      "name": "revokeConfirmation",
      "outputs": [],
      "stateMutability": "nonpayable",
      "type": "function"
    },
    {
      "inputs": [
        {
          "internalType": "uint256",
          "name": "txIndex",
          "type": "uint256"
        }
      ],
      "name": "get",
      "outputs": [
        {
          "components": [
            {
              "internalType": "address",
              "name": "to",
              "type": "address"
            },
            {
              "internalType": "uint256",
              "name": "value",
              "type": "uint256"
            },
            {
              "internalType": "string",
              "name": "data",
              "type": "string"
            },
            {
              "internalType": "bool",
              "name": "isConfirmed",
              "type": "bool"
            },
            {
              "internalType": "uint256",
              "name": "numOfConfirmations",
              "type": "uint256"
            },
            {
              "internalType": "bool",
              "name": "hasBeenExecuted",
              "type": "bool"
            }
          ],
          "internalType": "struct MultiSig.Transaction",
          "name": "transaction",
          "type": "tuple"
        }
      ],
      "stateMutability": "view",
      "type": "function",
      "constant": true
    }
  ],
  "bytecode": "0x60806040523480156200001157600080fd5b506040516200279b3803806200279b83398181016040528101906200003791906200018e565b600081116200007d576040517f08c379a0000000000000000000000000000000000000000000000000000000008152600401620000749062000247565b60405180910390fd5b6000600281905550600060048190555060016000803373ffffffffffffffffffffffffffffffffffffffff1673ffffffffffffffffffffffffffffffffffffffff16815260200190815260200160002060006101000a81548160ff0219169083151502179055506006339080600181540180825580915050600190039060005260206000200160009091909190916101000a81548173ffffffffffffffffffffffffffffffffffffffff021916908373ffffffffffffffffffffffffffffffffffffffff1602179055505062000269565b600080fd5b6000819050919050565b620001688162000153565b81146200017457600080fd5b50565b60008151905062000188816200015d565b92915050565b600060208284031215620001a757620001a66200014e565b5b6000620001b78482850162000177565b91505092915050565b600082825260208201905092915050565b7f4d696e696d756d206e756d626572206f6620636f6e6669726d6174696f6e732060008201527f6e6565647320746f206265206d6f7265207468616e20302e0000000000000000602082015250565b60006200022f603883620001c0565b91506200023c82620001d1565b604082019050919050565b60006020820190508181036000830152620002628162000220565b9050919050565b61252280620002796000396000f3fe6080604052600436106100f35760003560e01c80639ace38c21161008a578063bacd2e9711610059578063bacd2e971461035d578063cd0a314b14610388578063d0e30db0146103b3578063fe0d94c1146103bd576100f3565b80639ace38c214610285578063a32b2803146102c7578063a7b809eb146102f2578063ba0179b514610334576100f3565b806343a29af2116100c657806343a29af2146101c4578063513a462a146101e057806380f59a651461020b5780639507d39a14610248576100f3565b8063025e7c27146100f85780630ec7298d1461013557806320ea8d861461015e5780632f54bf6e14610187575b600080fd5b34801561010457600080fd5b5061011f600480360381019061011a91906118ea565b6103d9565b60405161012c9190611958565b60405180910390f35b34801561014157600080fd5b5061015c60048036038101906101579190611af8565b610418565b005b34801561016a57600080fd5b50610185600480360381019061018091906118ea565b61069b565b005b34801561019357600080fd5b506101ae60048036038101906101a99190611b41565b6108d3565b6040516101bb9190611b89565b60405180910390f35b6101de60048036038101906101d99190611c59565b6108f3565b005b3480156101ec57600080fd5b506101f5610b0d565b6040516102029190611cd7565b60405180910390f35b34801561021757600080fd5b50610232600480360381019061022d9190611cf2565b610b13565b60405161023f9190611b89565b60405180910390f35b34801561025457600080fd5b5061026f600480360381019061026a91906118ea565b610b42565b60405161027c9190611e70565b60405180910390f35b34801561029157600080fd5b506102ac60048036038101906102a791906118ea565b610cb6565b6040516102be96959493929190611edc565b60405180910390f35b3480156102d357600080fd5b506102dc610dc4565b6040516102e99190611cd7565b60405180910390f35b3480156102fe57600080fd5b50610319600480360381019061031491906118ea565b610dca565b60405161032b96959493929190611edc565b60405180910390f35b34801561034057600080fd5b5061035b600480360381019061035691906118ea565b610ed8565b005b34801561036957600080fd5b50610372611077565b60405161037f9190611cd7565b60405180910390f35b34801561039457600080fd5b5061039d61107d565b6040516103aa9190611cd7565b60405180910390f35b6103bb611083565b005b6103d760048036038101906103d291906118ea565b61116c565b005b600681815481106103e957600080fd5b906000526020600020016000915054906101000a900473ffffffffffffffffffffffffffffffffffffffff1681565b6000803373ffffffffffffffffffffffffffffffffffffffff1673ffffffffffffffffffffffffffffffffffffffff16815260200190815260200160002060009054906101000a900460ff166104a3576040517f08c379a000000000000000000000000000000000000000000000000000000000815260040161049a90611f90565b60405180910390fd5b60005b81518110156106975760008282815181106104c4576104c3611fb0565b5b602002602001015190506000808273ffffffffffffffffffffffffffffffffffffffff1673ffffffffffffffffffffffffffffffffffffffff16815260200190815260200160002060009054906101000a900460ff161561055a576040517f08c379a00000000000000000000000000000000000000000000000000000000081526004016105519061202b565b60405180910390fd5b600073ffffffffffffffffffffffffffffffffffffffff168173ffffffffffffffffffffffffffffffffffffffff16036105c9576040517f08c379a00000000000000000000000000000000000000000000000000000000081526004016105c090612097565b60405180910390fd5b60016000808373ffffffffffffffffffffffffffffffffffffffff1673ffffffffffffffffffffffffffffffffffffffff16815260200190815260200160002060006101000a81548160ff0219169083151502179055506006819080600181540180825580915050600190039060005260206000200160009091909190916101000a81548173ffffffffffffffffffffffffffffffffffffffff021916908373ffffffffffffffffffffffffffffffffffffffff16021790555050808061068f906120e6565b9150506104a6565b5050565b6000803373ffffffffffffffffffffffffffffffffffffffff1673ffffffffffffffffffffffffffffffffffffffff16815260200190815260200160002060009054906101000a900460ff16610726576040517f08c379a000000000000000000000000000000000000000000000000000000000815260040161071d90611f90565b60405180910390fd5b600180828154811061073b5761073a611fb0565b5b906000526020600020906006020160040154101561078e576040517f08c379a00000000000000000000000000000000000000000000000000000000081526004016107859061217a565b60405180910390fd5b6009600082815260200190815260200160002060003373ffffffffffffffffffffffffffffffffffffffff1673ffffffffffffffffffffffffffffffffffffffff16815260200190815260200160002060009054906101000a900460ff1661082b576040517f08c379a0000000000000000000000000000000000000000000000000000000008152600401610822906121e6565b60405180910390fd5b60006009600083815260200190815260200160002060003373ffffffffffffffffffffffffffffffffffffffff1673ffffffffffffffffffffffffffffffffffffffff16815260200190815260200160002060006101000a81548160ff02191690831515021790555060018082815481106108a9576108a8611fb0565b5b906000526020600020906006020160040160008282546108c99190612206565b9250508190555050565b60006020528060005260406000206000915054906101000a900460ff1681565b6000803373ffffffffffffffffffffffffffffffffffffffff1673ffffffffffffffffffffffffffffffffffffffff16815260200190815260200160002060009054906101000a900460ff1661097e576040517f08c379a000000000000000000000000000000000000000000000000000000000815260040161097590611f90565b60405180910390fd5b600082116109c1576040517f08c379a00000000000000000000000000000000000000000000000000000000081526004016109b890612286565b60405180910390fd5b60016040518060c001604052808573ffffffffffffffffffffffffffffffffffffffff1681526020018481526020018381526020016000151581526020016000815260200160001515815250908060018154018082558091505060019003906000526020600020906006020160009091909190915060008201518160000160006101000a81548173ffffffffffffffffffffffffffffffffffffffff021916908373ffffffffffffffffffffffffffffffffffffffff160217905550602082015181600101556040820151816002019080519060200190610aa39291906117ad565b5060608201518160030160006101000a81548160ff0219169083151502179055506080820151816004015560a08201518160050160006101000a81548160ff021916908315150217905550505060026000815480929190610b03906120e6565b9190505550505050565b60025481565b60096020528160005260406000206020528060005260406000206000915091509054906101000a900460ff1681565b610b4a611833565b600060018381548110610b6057610b5f611fb0565b5b90600052602060002090600602016040518060c00160405290816000820160009054906101000a900473ffffffffffffffffffffffffffffffffffffffff1673ffffffffffffffffffffffffffffffffffffffff1673ffffffffffffffffffffffffffffffffffffffff16815260200160018201548152602001600282018054610be9906122d5565b80601f0160208091040260200160405190810160405280929190818152602001828054610c15906122d5565b8015610c625780601f10610c3757610100808354040283529160200191610c62565b820191906000526020600020905b815481529060010190602001808311610c4557829003601f168201915b505050505081526020016003820160009054906101000a900460ff16151515158152602001600482015481526020016005820160009054906101000a900460ff161515151581525050905080915050919050565b60018181548110610cc657600080fd5b90600052602060002090600602016000915090508060000160009054906101000a900473ffffffffffffffffffffffffffffffffffffffff1690806001015490806002018054610d15906122d5565b80601f0160208091040260200160405190810160405280929190818152602001828054610d41906122d5565b8015610d8e5780601f10610d6357610100808354040283529160200191610d8e565b820191906000526020600020905b815481529060010190602001808311610d7157829003601f168201915b5050505050908060030160009054906101000a900460ff16908060040154908060050160009054906101000a900460ff16905086565b60075481565b60058181548110610dda57600080fd5b90600052602060002090600602016000915090508060000160009054906101000a900473ffffffffffffffffffffffffffffffffffffffff1690806001015490806002018054610e29906122d5565b80601f0160208091040260200160405190810160405280929190818152602001828054610e55906122d5565b8015610ea25780601f10610e7757610100808354040283529160200191610ea2565b820191906000526020600020905b815481529060010190602001808311610e8557829003601f168201915b5050505050908060030160009054906101000a900460ff16908060040154908060050160009054906101000a900460ff16905086565b6000803373ffffffffffffffffffffffffffffffffffffffff1673ffffffffffffffffffffffffffffffffffffffff16815260200190815260200160002060009054906101000a900460ff16610f63576040517f08c379a0000000000000000000000000000000000000000000000000000000008152600401610f5a90611f90565b60405180910390fd5b6001808281548110610f7857610f77611fb0565b5b90600052602060002090600602016004016000828254610f989190612306565b9250508190555060075460018281548110610fb657610fb5611fb0565b5b90600052602060002090600602016004015410611074576001808281548110610fe257610fe1611fb0565b5b906000526020600020906006020160030160006101000a81548160ff02191690831515021790555060016009600083815260200190815260200160002060003373ffffffffffffffffffffffffffffffffffffffff1673ffffffffffffffffffffffffffffffffffffffff16815260200190815260200160002060006101000a81548160ff0219169083151502179055505b50565b60045481565b60085481565b6000803373ffffffffffffffffffffffffffffffffffffffff1673ffffffffffffffffffffffffffffffffffffffff16815260200190815260200160002060009054906101000a900460ff1661110e576040517f08c379a000000000000000000000000000000000000000000000000000000000815260040161110590611f90565b60405180910390fd5b60003411611151576040517f08c379a0000000000000000000000000000000000000000000000000000000008152600401611148906123ce565b60405180910390fd5b34600860008282546111639190612306565b92505081905550565b6000803373ffffffffffffffffffffffffffffffffffffffff1673ffffffffffffffffffffffffffffffffffffffff16815260200190815260200160002060009054906101000a900460ff166111f7576040517f08c379a00000000000000000000000000000000000000000000000000000000081526004016111ee90611f90565b60405180910390fd5b6007546001828154811061120e5761120d611fb0565b5b9060005260206000209060060201600401541015611261576040517f08c379a00000000000000000000000000000000000000000000000000000000081526004016112589061243a565b60405180910390fd5b600015156001828154811061127957611278611fb0565b5b906000526020600020906006020160050160009054906101000a900460ff161515146112da576040517f08c379a00000000000000000000000000000000000000000000000000000000081526004016112d1906124cc565b60405180910390fd5b6000600182815481106112f0576112ef611fb0565b5b906000526020600020906006020160000160009054906101000a900473ffffffffffffffffffffffffffffffffffffffff16905060006001838154811061133a57611339611fb0565b5b90600052602060002090600602016001015490508173ffffffffffffffffffffffffffffffffffffffff166108fc829081150290604051600060405180830381858888f19350505050158015611394573d6000803e3d6000fd5b506001600460008282546113a89190612306565b9250508190555060006005600454815481106113c7576113c6611fb0565b5b90600052602060002090600602016040518060c00160405290816000820160009054906101000a900473ffffffffffffffffffffffffffffffffffffffff1673ffffffffffffffffffffffffffffffffffffffff1673ffffffffffffffffffffffffffffffffffffffff16815260200160018201548152602001600282018054611450906122d5565b80601f016020809104026020016040519081016040528092919081815260200182805461147c906122d5565b80156114c95780601f1061149e576101008083540402835291602001916114c9565b820191906000526020600020905b8154815290600101906020018083116114ac57829003601f168201915b505050505081526020016003820160009054906101000a900460ff16151515158152602001600482015481526020016005820160009054906101000a900460ff16151515158152505090506003600085815260200190815260200160002060000160009054906101000a900473ffffffffffffffffffffffffffffffffffffffff16816000019073ffffffffffffffffffffffffffffffffffffffff16908173ffffffffffffffffffffffffffffffffffffffff168152505060036000858152602001908152602001600020600101548160200181815250506003600085815260200190815260200160002060020180546115c3906122d5565b80601f01602080910402602001604051908101604052809291908181526020018280546115ef906122d5565b801561163c5780601f106116115761010080835404028352916020019161163c565b820191906000526020600020905b81548152906001019060200180831161161f57829003601f168201915b50505050508160400181905250600360008581526020019081526020016000206004015481608001818152505060056040518060c00160405280836000015173ffffffffffffffffffffffffffffffffffffffff16815260200183602001518152602001836040015181526020016001151581526020018360800151815260200160011515815250908060018154018082558091505060019003906000526020600020906006020160009091909190915060008201518160000160006101000a81548173ffffffffffffffffffffffffffffffffffffffff021916908373ffffffffffffffffffffffffffffffffffffffff16021790555060208201518160010155604082015181600201908051906020019061175a9291906117ad565b5060608201518160030160006101000a81548160ff0219169083151502179055506080820151816004015560a08201518160050160006101000a81548160ff021916908315150217905550505050505050565b8280546117b9906122d5565b90600052602060002090601f0160209004810192826117db5760008555611822565b82601f106117f457805160ff1916838001178555611822565b82800160010185558215611822579182015b82811115611821578251825591602001919060010190611806565b5b50905061182f9190611883565b5090565b6040518060c00160405280600073ffffffffffffffffffffffffffffffffffffffff1681526020016000815260200160608152602001600015158152602001600081526020016000151581525090565b5b8082111561189c576000816000905550600101611884565b5090565b6000604051905090565b600080fd5b600080fd5b6000819050919050565b6118c7816118b4565b81146118d257600080fd5b50565b6000813590506118e4816118be565b92915050565b600060208284031215611900576118ff6118aa565b5b600061190e848285016118d5565b91505092915050565b600073ffffffffffffffffffffffffffffffffffffffff82169050919050565b600061194282611917565b9050919050565b61195281611937565b82525050565b600060208201905061196d6000830184611949565b92915050565b600080fd5b6000601f19601f8301169050919050565b7f4e487b7100000000000000000000000000000000000000000000000000000000600052604160045260246000fd5b6119c182611978565b810181811067ffffffffffffffff821117156119e0576119df611989565b5b80604052505050565b60006119f36118a0565b90506119ff82826119b8565b919050565b600067ffffffffffffffff821115611a1f57611a1e611989565b5b602082029050602081019050919050565b600080fd5b611a3e81611937565b8114611a4957600080fd5b50565b600081359050611a5b81611a35565b92915050565b6000611a74611a6f84611a04565b6119e9565b90508083825260208201905060208402830185811115611a9757611a96611a30565b5b835b81811015611ac05780611aac8882611a4c565b845260208401935050602081019050611a99565b5050509392505050565b600082601f830112611adf57611ade611973565b5b8135611aef848260208601611a61565b91505092915050565b600060208284031215611b0e57611b0d6118aa565b5b600082013567ffffffffffffffff811115611b2c57611b2b6118af565b5b611b3884828501611aca565b91505092915050565b600060208284031215611b5757611b566118aa565b5b6000611b6584828501611a4c565b91505092915050565b60008115159050919050565b611b8381611b6e565b82525050565b6000602082019050611b9e6000830184611b7a565b92915050565b600080fd5b600067ffffffffffffffff821115611bc457611bc3611989565b5b611bcd82611978565b9050602081019050919050565b82818337600083830152505050565b6000611bfc611bf784611ba9565b6119e9565b905082815260208101848484011115611c1857611c17611ba4565b5b611c23848285611bda565b509392505050565b600082601f830112611c4057611c3f611973565b5b8135611c50848260208601611be9565b91505092915050565b600080600060608486031215611c7257611c716118aa565b5b6000611c8086828701611a4c565b9350506020611c91868287016118d5565b925050604084013567ffffffffffffffff811115611cb257611cb16118af565b5b611cbe86828701611c2b565b9150509250925092565b611cd1816118b4565b82525050565b6000602082019050611cec6000830184611cc8565b92915050565b60008060408385031215611d0957611d086118aa565b5b6000611d17858286016118d5565b9250506020611d2885828601611a4c565b9150509250929050565b611d3b81611937565b82525050565b611d4a816118b4565b82525050565b600081519050919050565b600082825260208201905092915050565b60005b83811015611d8a578082015181840152602081019050611d6f565b83811115611d99576000848401525b50505050565b6000611daa82611d50565b611db48185611d5b565b9350611dc4818560208601611d6c565b611dcd81611978565b840191505092915050565b611de181611b6e565b82525050565b600060c083016000830151611dff6000860182611d32565b506020830151611e126020860182611d41565b5060408301518482036040860152611e2a8282611d9f565b9150506060830151611e3f6060860182611dd8565b506080830151611e526080860182611d41565b5060a0830151611e6560a0860182611dd8565b508091505092915050565b60006020820190508181036000830152611e8a8184611de7565b905092915050565b600082825260208201905092915050565b6000611eae82611d50565b611eb88185611e92565b9350611ec8818560208601611d6c565b611ed181611978565b840191505092915050565b600060c082019050611ef16000830189611949565b611efe6020830188611cc8565b8181036040830152611f108187611ea3565b9050611f1f6060830186611b7a565b611f2c6080830185611cc8565b611f3960a0830184611b7a565b979650505050505050565b7f4f6e6c79206f776e6572732063616e20646f20746869732e0000000000000000600082015250565b6000611f7a601883611e92565b9150611f8582611f44565b602082019050919050565b60006020820190508181036000830152611fa981611f6d565b9050919050565b7f4e487b7100000000000000000000000000000000000000000000000000000000600052603260045260246000fd5b7f416c726561647920616e206f776e65722e000000000000000000000000000000600082015250565b6000612015601183611e92565b915061202082611fdf565b602082019050919050565b6000602082019050818103600083015261204481612008565b9050919050565b7f4f6e6c79207265616c2061646472657373657320706c656173652e0000000000600082015250565b6000612081601b83611e92565b915061208c8261204b565b602082019050919050565b600060208201905081810360008301526120b081612074565b9050919050565b7f4e487b7100000000000000000000000000000000000000000000000000000000600052601160045260246000fd5b60006120f1826118b4565b91507fffffffffffffffffffffffffffffffffffffffffffffffffffffffffffffffff8203612123576121226120b7565b5b600182019050919050565b7f4e6f20636f6e6669726d6174696f6e7300000000000000000000000000000000600082015250565b6000612164601083611e92565b915061216f8261212e565b602082019050919050565b6000602082019050818103600083015261219381612157565b9050919050565b7f596f75206469646e277420636f6e6669726d2100000000000000000000000000600082015250565b60006121d0601383611e92565b91506121db8261219a565b602082019050919050565b600060208201905081810360008301526121ff816121c3565b9050919050565b6000612211826118b4565b915061221c836118b4565b92508282101561222f5761222e6120b7565b5b828203905092915050565b7f6d75737420626520677265617465207468616e20300000000000000000000000600082015250565b6000612270601583611e92565b915061227b8261223a565b602082019050919050565b6000602082019050818103600083015261229f81612263565b9050919050565b7f4e487b7100000000000000000000000000000000000000000000000000000000600052602260045260246000fd5b600060028204905060018216806122ed57607f821691505b602082108103612300576122ff6122a6565b5b50919050565b6000612311826118b4565b915061231c836118b4565b9250827fffffffffffffffffffffffffffffffffffffffffffffffffffffffffffffffff03821115612351576123506120b7565b5b828201905092915050565b7f4d7573742073656e6420612076616c75652067726561746572207468616e203060008201527f2e00000000000000000000000000000000000000000000000000000000000000602082015250565b60006123b8602183611e92565b91506123c38261235c565b604082019050919050565b600060208201905081810360008301526123e7816123ab565b9050919050565b7f4e6f7420656e6f75676820636f6e6669726d6174696f6e732e00000000000000600082015250565b6000612424601983611e92565b915061242f826123ee565b602082019050919050565b6000602082019050818103600083015261245381612417565b9050919050565b7f54686973207472616e73616374696f6e20686173206265656e2065786563757460008201527f656420616c726561647900000000000000000000000000000000000000000000602082015250565b60006124b6602a83611e92565b91506124c18261245a565b604082019050919050565b600060208201905081810360008301526124e5816124a9565b905091905056fea264697066735822122024665bb5882639481c9f2a96735649bd1b754085d5767248a08a0d0d6b645f4c64736f6c634300080e0033",
  "immutableReferences": {},
  "source": "//SPDX-License-Identifier: MIT\npragma solidity ^0.8.7;\n\ncontract MultiSig {\n    //transaction struct -> to, value, isConfirmed?, numOfConfirmations, data?\n    //array of transactions\n    //mapping for owners\n    //events? Confirm; Revoke; Execute, Submit -> Transactions\n    //events: deposit\n    //constructor: list of owners (all appeneded in); minNumOfConfirmations\n    //functions: deposit; submitTransactions; confirmTransactions; executeTransactions; revokeTransactions?; getTransactions\n\n    struct Transaction {\n        address to;\n        uint256 value;\n        string data;\n        bool isConfirmed;\n        uint256 numOfConfirmations;\n        bool hasBeenExecuted;\n    }\n\n    mapping(address => bool) public isOwner;\n\n    Transaction[] public transactions;\n\n    uint256 public transCount;\n\n    mapping(uint256 => Transaction) transMap;\n\n    uint256 public executedCount;\n\n    //mapping(uint256 => Transaction) executedTrans;\n\n    Transaction[] public executedTransactions;\n\n    address[] public owners;\n\n    uint256 public minNumOfConfirmations;\n\n    uint256 public walletBalance;\n\n    //mapping mapping to check if a user confirmed transaction.\n    mapping(uint256 => mapping(address => bool)) public isConfirmed;\n\n    modifier onlyOwner() {\n        require(isOwner[msg.sender], \"Only owners can do this.\");\n        _;\n    }\n\n    constructor(uint256 _minNumOfConfirmations) {\n        //        require(_owners.length > 1, \"Must be more than one owner.\");\n        require(\n            _minNumOfConfirmations > 0,\n            \"Minimum number of confirmations needs to be more than 0.\"\n        );\n\n        transCount = 0;\n        executedCount = 0;\n\n        isOwner[msg.sender] = true;\n        owners.push(msg.sender);\n    }\n\n    function newOwner(address[] memory _owners) public onlyOwner {\n        for (uint256 i = 0; i < _owners.length; i++) {\n            address owner = _owners[i];\n\n            require(!isOwner[owner], \"Already an owner.\");\n            require(owner != address(0), \"Only real addresses please.\");\n\n            isOwner[owner] = true;\n            owners.push(owner);\n        }\n    }\n\n    //deposit payable\n    function deposit() public payable onlyOwner {\n        require(msg.value > 0, \"Must send a value greater than 0.\");\n        walletBalance += msg.value;\n        // emit depositAmount(msg.sender, msg.value);\n    }\n\n    //submitTransactions\n    function submit(\n        address _to,\n        uint256 _value,\n        string memory _data\n    ) public payable onlyOwner {\n        require(_value > 0, \"must be greate than 0\");\n\n        //uint256 txIndex = transactions.length;\n        //uint256 txIndex = transCount;\n\n        transactions.push(Transaction(_to, _value, _data, false, 0, false));\n        //Transaction memory _transaction = transMap[txIndex];\n\n        //_transaction.to = _to;\n        //_transaction.value = _value;\n        //_transaction.data = _data;\n        //_transaction.isConfirmed = false;\n        //_transaction.numOfConfirmations = 0;\n\n        //transactions.push(_transaction);\n        transCount++;\n\n        //return _transaction.data;\n    }\n\n    //confirmTransactions\n    function confirm(uint256 txIndex) public onlyOwner {\n        transactions[txIndex].numOfConfirmations += 1;\n\n        if (transactions[txIndex].numOfConfirmations >= minNumOfConfirmations) {\n            transactions[txIndex].isConfirmed = true;\n            isConfirmed[txIndex][msg.sender] = true;\n        }\n    }\n\n    //count & mapping instead of array. (TICK)\n\n    //executeTransactions\n    function execute(uint256 txIndex) public payable onlyOwner {\n        require(\n            transactions[txIndex].numOfConfirmations >= minNumOfConfirmations,\n            \"Not enough confirmations.\"\n        );\n        require(\n            transactions[txIndex].hasBeenExecuted == false,\n            \"This transaction has been executed already\"\n        );\n\n        //send value to 'to' & move to executed trans\n        address reciever = transactions[txIndex].to;\n        uint256 amount = transactions[txIndex].value;\n\n        //sent\n        payable(reciever).transfer(amount);\n\n        executedCount += 1;\n\n        Transaction memory _transaction = executedTransactions[executedCount];\n\n        _transaction.to = transMap[txIndex].to;\n        _transaction.value = transMap[txIndex].value;\n        _transaction.data = transMap[txIndex].data;\n        _transaction.numOfConfirmations = transMap[txIndex].numOfConfirmations;\n\n        executedTransactions.push(\n            Transaction(\n                _transaction.to,\n                _transaction.value,\n                _transaction.data,\n                true,\n                _transaction.numOfConfirmations,\n                true\n            )\n        );\n\n        //remove from trans mapping\n        //delete transMap[txIndex];\n    }\n\n    //revokeTransactions\n    function revokeConfirmation(uint256 txIndex) public onlyOwner {\n        require(\n            transactions[txIndex].numOfConfirmations >= 1,\n            \"No confirmations\"\n        );\n        require(isConfirmed[txIndex][msg.sender], \"You didn't confirm!\");\n\n        isConfirmed[txIndex][msg.sender] = false;\n        transactions[txIndex].numOfConfirmations -= 1;\n    }\n\n    //getTransactions\n    function get(uint256 txIndex)\n        public\n        view\n        returns (Transaction memory transaction)\n    {\n        Transaction memory getTran = transactions[txIndex];\n\n        return getTran;\n    }\n}\n",
  "sourcePath": "/Users/Dolapo/Desktop/CryptoDev/DevelopmentTutorials/MultiSig/src/contracts/MultiSig.sol",
  "compiler": {
    "name": "solc",
    "version": "0.8.14+commit.80d49f37.Emscripten.clang"
  },
  "schemaVersion": "3.4.7",
  "updatedAt": "2022-10-15T23:19:33.785Z",
  "networkType": "ethereum",
  "devdoc": {
    "kind": "dev",
    "methods": {},
    "version": 1
  },
  "userdoc": {
    "kind": "user",
    "methods": {},
    "version": 1
  }
}