{
    "_format": "hh-sol-artifact-1",
    "contractName": "MultiSig",
    "sourceName": "contracts/MultiSig.sol",
    "abi": [
        {
            "inputs": [
                {
                    "internalType": "address[]",
                    "name": "_owners",
                    "type": "address[]"
                },
                {
                    "internalType": "uint256",
                    "name": "_minNumOfConfirmations",
                    "type": "uint256"
                }
            ],
            "stateMutability": "nonpayable",
            "type": "constructor"
        },
        {
            "anonymous": false,
            "inputs": [
                {
                    "components": [
                        {
                            "internalType": "address",
                            "name": "to",
                            "type": "address"
                        },
                        {
                            "internalType": "uint256",
                            "name": "value",
                            "type": "uint256"
                        },
                        {
                            "internalType": "bytes",
                            "name": "data",
                            "type": "bytes"
                        },
                        {
                            "internalType": "bool",
                            "name": "isConfirmed",
                            "type": "bool"
                        },
                        {
                            "internalType": "uint256",
                            "name": "numOfConfirmations",
                            "type": "uint256"
                        }
                    ],
                    "indexed": false,
                    "internalType": "struct MultiSig.Transaction",
                    "name": "transaction",
                    "type": "tuple"
                },
                {
                    "indexed": true,
                    "internalType": "uint256",
                    "name": "txIndex",
                    "type": "uint256"
                },
                {
                    "indexed": false,
                    "internalType": "bool",
                    "name": "confirmed",
                    "type": "bool"
                }
            ],
            "name": "confirmTransaction",
            "type": "event"
        },
        {
            "anonymous": false,
            "inputs": [
                {
                    "indexed": true,
                    "internalType": "address",
                    "name": "from",
                    "type": "address"
                },
                {
                    "indexed": false,
                    "internalType": "uint256",
                    "name": "amount",
                    "type": "uint256"
                }
            ],
            "name": "depositAmount",
            "type": "event"
        },
        {
            "anonymous": false,
            "inputs": [
                {
                    "components": [
                        {
                            "internalType": "address",
                            "name": "to",
                            "type": "address"
                        },
                        {
                            "internalType": "uint256",
                            "name": "value",
                            "type": "uint256"
                        },
                        {
                            "internalType": "bytes",
                            "name": "data",
                            "type": "bytes"
                        },
                        {
                            "internalType": "bool",
                            "name": "isConfirmed",
                            "type": "bool"
                        },
                        {
                            "internalType": "uint256",
                            "name": "numOfConfirmations",
                            "type": "uint256"
                        }
                    ],
                    "indexed": false,
                    "internalType": "struct MultiSig.Transaction",
                    "name": "transaction",
                    "type": "tuple"
                },
                {
                    "indexed": true,
                    "internalType": "uint256",
                    "name": "txIndex",
                    "type": "uint256"
                }
            ],
            "name": "executeTransaction",
            "type": "event"
        },
        {
            "anonymous": false,
            "inputs": [
                {
                    "components": [
                        {
                            "internalType": "address",
                            "name": "to",
                            "type": "address"
                        },
                        {
                            "internalType": "uint256",
                            "name": "value",
                            "type": "uint256"
                        },
                        {
                            "internalType": "bytes",
                            "name": "data",
                            "type": "bytes"
                        },
                        {
                            "internalType": "bool",
                            "name": "isConfirmed",
                            "type": "bool"
                        },
                        {
                            "internalType": "uint256",
                            "name": "numOfConfirmations",
                            "type": "uint256"
                        }
                    ],
                    "indexed": false,
                    "internalType": "struct MultiSig.Transaction",
                    "name": "transaction",
                    "type": "tuple"
                },
                {
                    "indexed": true,
                    "internalType": "uint256",
                    "name": "txIndex",
                    "type": "uint256"
                }
            ],
            "name": "revokeTransaction",
            "type": "event"
        },
        {
            "anonymous": false,
            "inputs": [
                {
                    "indexed": true,
                    "internalType": "address",
                    "name": "owner",
                    "type": "address"
                },
                {
                    "indexed": true,
                    "internalType": "address",
                    "name": "to",
                    "type": "address"
                },
                {
                    "indexed": false,
                    "internalType": "uint256",
                    "name": "value",
                    "type": "uint256"
                },
                {
                    "indexed": false,
                    "internalType": "bytes",
                    "name": "data",
                    "type": "bytes"
                },
                {
                    "indexed": true,
                    "internalType": "uint256",
                    "name": "txIndex",
                    "type": "uint256"
                }
            ],
            "name": "submitTransaction",
            "type": "event"
        },
        {
            "anonymous": false,
            "inputs": [
                {
                    "components": [
                        {
                            "internalType": "address",
                            "name": "to",
                            "type": "address"
                        },
                        {
                            "internalType": "uint256",
                            "name": "value",
                            "type": "uint256"
                        },
                        {
                            "internalType": "bytes",
                            "name": "data",
                            "type": "bytes"
                        },
                        {
                            "internalType": "bool",
                            "name": "isConfirmed",
                            "type": "bool"
                        },
                        {
                            "internalType": "uint256",
                            "name": "numOfConfirmations",
                            "type": "uint256"
                        }
                    ],
                    "indexed": false,
                    "internalType": "struct MultiSig.Transaction",
                    "name": "transaction",
                    "type": "tuple"
                },
                {
                    "indexed": true,
                    "internalType": "uint256",
                    "name": "txIndex",
                    "type": "uint256"
                }
            ],
            "name": "submitTransaction",
            "type": "event"
        },
        {
            "inputs": [
                {
                    "internalType": "uint256",
                    "name": "txIndex",
                    "type": "uint256"
                }
            ],
            "name": "confirm",
            "outputs": [],
            "stateMutability": "nonpayable",
            "type": "function"
        },
        {
            "inputs": [],
            "name": "deposit",
            "outputs": [],
            "stateMutability": "payable",
            "type": "function"
        },
        {
            "inputs": [
                {
                    "internalType": "uint256",
                    "name": "txIndex",
                    "type": "uint256"
                }
            ],
            "name": "execute",
            "outputs": [],
            "stateMutability": "payable",
            "type": "function"
        },
        {
            "inputs": [],
            "name": "executedCount",
            "outputs": [
                {
                    "internalType": "uint256",
                    "name": "",
                    "type": "uint256"
                }
            ],
            "stateMutability": "view",
            "type": "function"
        },
        {
            "inputs": [
                {
                    "internalType": "uint256",
                    "name": "txIndex",
                    "type": "uint256"
                }
            ],
            "name": "get",
            "outputs": [
                {
                    "components": [
                        {
                            "internalType": "address",
                            "name": "to",
                            "type": "address"
                        },
                        {
                            "internalType": "uint256",
                            "name": "value",
                            "type": "uint256"
                        },
                        {
                            "internalType": "bytes",
                            "name": "data",
                            "type": "bytes"
                        },
                        {
                            "internalType": "bool",
                            "name": "isConfirmed",
                            "type": "bool"
                        },
                        {
                            "internalType": "uint256",
                            "name": "numOfConfirmations",
                            "type": "uint256"
                        }
                    ],
                    "internalType": "struct MultiSig.Transaction",
                    "name": "transaction",
                    "type": "tuple"
                }
            ],
            "stateMutability": "view",
            "type": "function"
        },
        {
            "inputs": [
                {
                    "internalType": "uint256",
                    "name": "",
                    "type": "uint256"
                },
                {
                    "internalType": "address",
                    "name": "",
                    "type": "address"
                }
            ],
            "name": "isConfirmed",
            "outputs": [
                {
                    "internalType": "bool",
                    "name": "",
                    "type": "bool"
                }
            ],
            "stateMutability": "view",
            "type": "function"
        },
        {
            "inputs": [
                {
                    "internalType": "address",
                    "name": "",
                    "type": "address"
                }
            ],
            "name": "isOwner",
            "outputs": [
                {
                    "internalType": "bool",
                    "name": "",
                    "type": "bool"
                }
            ],
            "stateMutability": "view",
            "type": "function"
        },
        {
            "inputs": [],
            "name": "minNumOfConfirmations",
            "outputs": [
                {
                    "internalType": "uint256",
                    "name": "",
                    "type": "uint256"
                }
            ],
            "stateMutability": "view",
            "type": "function"
        },
        {
            "inputs": [
                {
                    "internalType": "uint256",
                    "name": "",
                    "type": "uint256"
                }
            ],
            "name": "owners",
            "outputs": [
                {
                    "internalType": "address",
                    "name": "",
                    "type": "address"
                }
            ],
            "stateMutability": "view",
            "type": "function"
        },
        {
            "inputs": [
                {
                    "internalType": "uint256",
                    "name": "txIndex",
                    "type": "uint256"
                }
            ],
            "name": "revokeConfirmation",
            "outputs": [],
            "stateMutability": "nonpayable",
            "type": "function"
        },
        {
            "inputs": [
                {
                    "internalType": "address",
                    "name": "_to",
                    "type": "address"
                },
                {
                    "internalType": "uint256",
                    "name": "_value",
                    "type": "uint256"
                },
                {
                    "internalType": "bytes",
                    "name": "_data",
                    "type": "bytes"
                }
            ],
            "name": "submit",
            "outputs": [],
            "stateMutability": "payable",
            "type": "function"
        },
        {
            "inputs": [],
            "name": "transCount",
            "outputs": [
                {
                    "internalType": "uint256",
                    "name": "",
                    "type": "uint256"
                }
            ],
            "stateMutability": "view",
            "type": "function"
        },
        {
            "inputs": [
                {
                    "internalType": "uint256",
                    "name": "",
                    "type": "uint256"
                }
            ],
            "name": "transactions",
            "outputs": [
                {
                    "internalType": "address",
                    "name": "to",
                    "type": "address"
                },
                {
                    "internalType": "uint256",
                    "name": "value",
                    "type": "uint256"
                },
                {
                    "internalType": "bytes",
                    "name": "data",
                    "type": "bytes"
                },
                {
                    "internalType": "bool",
                    "name": "isConfirmed",
                    "type": "bool"
                },
                {
                    "internalType": "uint256",
                    "name": "numOfConfirmations",
                    "type": "uint256"
                }
            ],
            "stateMutability": "view",
            "type": "function"
        },
        {
            "inputs": [],
            "name": "walletBalance",
            "outputs": [
                {
                    "internalType": "uint256",
                    "name": "",
                    "type": "uint256"
                }
            ],
            "stateMutability": "view",
            "type": "function"
        }
    ],
    "bytecode": "0x60806040523480156200001157600080fd5b506040516200298738038062002987833981810160405281019062000037919062000519565b60018251116200007e576040517f08c379a00000000000000000000000000000000000000000000000000000000081526004016200007590620005e0565b60405180910390fd5b6006805490508110158015620000945750600081115b620000d6576040517f08c379a0000000000000000000000000000000000000000000000000000000008152600401620000cd906200069e565b60405180910390fd5b6000600281905550600060048190555060005b8251811015620002e75760008382815181106200010b576200010a620006c0565b5b602002602001015190506000808273ffffffffffffffffffffffffffffffffffffffff1673ffffffffffffffffffffffffffffffffffffffff16815260200190815260200160002060009054906101000a900460ff1615620001a4576040517f08c379a00000000000000000000000000000000000000000000000000000000081526004016200019b906200073f565b60405180910390fd5b600073ffffffffffffffffffffffffffffffffffffffff168173ffffffffffffffffffffffffffffffffffffffff160362000216576040517f08c379a00000000000000000000000000000000000000000000000000000000081526004016200020d90620007b1565b60405180910390fd5b60016000808373ffffffffffffffffffffffffffffffffffffffff1673ffffffffffffffffffffffffffffffffffffffff16815260200190815260200160002060006101000a81548160ff0219169083151502179055506006819080600181540180825580915050600190039060005260206000200160009091909190916101000a81548173ffffffffffffffffffffffffffffffffffffffff021916908373ffffffffffffffffffffffffffffffffffffffff160217905550508080620002de9062000802565b915050620000e9565b5050506200084f565b6000604051905090565b600080fd5b600080fd5b600080fd5b6000601f19601f8301169050919050565b7f4e487b7100000000000000000000000000000000000000000000000000000000600052604160045260246000fd5b620003548262000309565b810181811067ffffffffffffffff821117156200037657620003756200031a565b5b80604052505050565b60006200038b620002f0565b905062000399828262000349565b919050565b600067ffffffffffffffff821115620003bc57620003bb6200031a565b5b602082029050602081019050919050565b600080fd5b600073ffffffffffffffffffffffffffffffffffffffff82169050919050565b6000620003ff82620003d2565b9050919050565b6200041181620003f2565b81146200041d57600080fd5b50565b600081519050620004318162000406565b92915050565b60006200044e62000448846200039e565b6200037f565b90508083825260208201905060208402830185811115620004745762000473620003cd565b5b835b81811015620004a157806200048c888262000420565b84526020840193505060208101905062000476565b5050509392505050565b600082601f830112620004c357620004c262000304565b5b8151620004d584826020860162000437565b91505092915050565b6000819050919050565b620004f381620004de565b8114620004ff57600080fd5b50565b6000815190506200051381620004e8565b92915050565b60008060408385031215620005335762000532620002fa565b5b600083015167ffffffffffffffff811115620005545762000553620002ff565b5b6200056285828601620004ab565b9250506020620005758582860162000502565b9150509250929050565b600082825260208201905092915050565b7f4d757374206265206d6f7265207468616e206f6e65206f776e65722e00000000600082015250565b6000620005c8601c836200057f565b9150620005d58262000590565b602082019050919050565b60006020820190508181036000830152620005fb81620005b9565b9050919050565b7f4d696e696d756d206e756d626572206f6620636f6e6669726d6174696f6e732060008201527f6e6565647320746f206265206c6f776572207468616e20616d6f756e74206f6660208201527f206f776e6572732e000000000000000000000000000000000000000000000000604082015250565b6000620006866048836200057f565b9150620006938262000602565b606082019050919050565b60006020820190508181036000830152620006b98162000677565b9050919050565b7f4e487b7100000000000000000000000000000000000000000000000000000000600052603260045260246000fd5b7f416c726561647920616e206f776e65722e000000000000000000000000000000600082015250565b6000620007276011836200057f565b91506200073482620006ef565b602082019050919050565b600060208201905081810360008301526200075a8162000718565b9050919050565b7f4f6e6c79207265616c2061646472657373657320706c656173652e0000000000600082015250565b600062000799601b836200057f565b9150620007a68262000761565b602082019050919050565b60006020820190508181036000830152620007cc816200078a565b9050919050565b7f4e487b7100000000000000000000000000000000000000000000000000000000600052601160045260246000fd5b60006200080f82620004de565b91507fffffffffffffffffffffffffffffffffffffffffffffffffffffffffffffffff8203620008445762000843620007d3565b5b600182019050919050565b612128806200085f6000396000f3fe6080604052600436106100dd5760003560e01c80639ace38c21161007f578063bacd2e9711610059578063bacd2e97146102db578063cd0a314b14610306578063d0e30db014610331578063fe0d94c11461033b576100dd565b80639ace38c214610246578063a32b280314610287578063ba0179b5146102b2576100dd565b80632f54bf6e116100bb5780632f54bf6e14610164578063513a462a146101a157806380f59a65146101cc5780639507d39a14610209576100dd565b8063025e7c27146100e257806314de327f1461011f57806320ea8d861461013b575b600080fd5b3480156100ee57600080fd5b50610109600480360381019061010491906113f6565b610357565b6040516101169190611464565b60405180910390f35b610139600480360381019061013491906115f1565b610396565b005b34801561014757600080fd5b50610162600480360381019061015d91906113f6565b6105bd565b005b34801561017057600080fd5b5061018b60048036038101906101869190611660565b610823565b60405161019891906116a8565b60405180910390f35b3480156101ad57600080fd5b506101b6610843565b6040516101c391906116d2565b60405180910390f35b3480156101d857600080fd5b506101f360048036038101906101ee91906116ed565b610849565b60405161020091906116a8565b60405180910390f35b34801561021557600080fd5b50610230600480360381019061022b91906113f6565b610878565b60405161023d919061184f565b60405180910390f35b34801561025257600080fd5b5061026d600480360381019061026891906113f6565b6109c2565b60405161027e9594939291906118bb565b60405180910390f35b34801561029357600080fd5b5061029c610abd565b6040516102a991906116d2565b60405180910390f35b3480156102be57600080fd5b506102d960048036038101906102d491906113f6565b610ac3565b005b3480156102e757600080fd5b506102f0610cd6565b6040516102fd91906116d2565b60405180910390f35b34801561031257600080fd5b5061031b610cdc565b60405161032891906116d2565b60405180910390f35b610339610ce2565b005b610355600480360381019061035091906113f6565b610dd6565b005b6006818154811061036757600080fd5b906000526020600020016000915054906101000a900473ffffffffffffffffffffffffffffffffffffffff1681565b6000803373ffffffffffffffffffffffffffffffffffffffff1673ffffffffffffffffffffffffffffffffffffffff16815260200190815260200160002060009054906101000a900460ff16610421576040517f08c379a000000000000000000000000000000000000000000000000000000000815260040161041890611972565b60405180910390fd5b6000821015610465576040517f08c379a000000000000000000000000000000000000000000000000000000000815260040161045c906119de565b60405180910390fd5b8260036000600254815260200190815260200160002060000160006101000a81548173ffffffffffffffffffffffffffffffffffffffff021916908373ffffffffffffffffffffffffffffffffffffffff16021790555081600360006002548152602001908152602001600020600101819055508060036000600254815260200190815260200160002060020190816104fe9190611c0a565b50600060036000600254815260200190815260200160002060030160006101000a81548160ff0219169083151502179055506000600360006002548152602001908152602001600020600401819055506002548373ffffffffffffffffffffffffffffffffffffffff163373ffffffffffffffffffffffffffffffffffffffff167f6b11c47c3998c9964974bbbf99ea5a68cc2a17edf69010cc6e6dbd3c7eda417c85856040516105b0929190611cdc565b60405180910390a4505050565b6000803373ffffffffffffffffffffffffffffffffffffffff1673ffffffffffffffffffffffffffffffffffffffff16815260200190815260200160002060009054906101000a900460ff16610648576040517f08c379a000000000000000000000000000000000000000000000000000000000815260040161063f90611972565b60405180910390fd5b6001600360008381526020019081526020016000206004015410156106a2576040517f08c379a000000000000000000000000000000000000000000000000000000000815260040161069990611d58565b60405180910390fd5b6009600082815260200190815260200160002060003373ffffffffffffffffffffffffffffffffffffffff1673ffffffffffffffffffffffffffffffffffffffff16815260200190815260200160002060009054906101000a900460ff1661073f576040517f08c379a000000000000000000000000000000000000000000000000000000000815260040161073690611dc4565b60405180910390fd5b60006009600083815260200190815260200160002060003373ffffffffffffffffffffffffffffffffffffffff1673ffffffffffffffffffffffffffffffffffffffff16815260200190815260200160002060006101000a81548160ff02191690831515021790555060016003600083815260200190815260200160002060040160008282546107cf9190611e13565b92505081905550807fc8b96fe83b88d3fd9f423dad59532aaa7344909cc2904ece82bc21ed755c10a9600360008481526020019081526020016000206040516108189190612000565b60405180910390a250565b60006020528060005260406000206000915054906101000a900460ff1681565b60025481565b60096020528160005260406000206020528060005260406000206000915091509054906101000a900460ff1681565b610880611308565b6000600360008481526020019081526020016000206040518060a00160405290816000820160009054906101000a900473ffffffffffffffffffffffffffffffffffffffff1673ffffffffffffffffffffffffffffffffffffffff1673ffffffffffffffffffffffffffffffffffffffff1681526020016001820154815260200160028201805461091090611a2d565b80601f016020809104026020016040519081016040528092919081815260200182805461093c90611a2d565b80156109895780601f1061095e57610100808354040283529160200191610989565b820191906000526020600020905b81548152906001019060200180831161096c57829003601f168201915b505050505081526020016003820160009054906101000a900460ff16151515158152602001600482015481525050905080915050919050565b600181815481106109d257600080fd5b90600052602060002090600502016000915090508060000160009054906101000a900473ffffffffffffffffffffffffffffffffffffffff1690806001015490806002018054610a2190611a2d565b80601f0160208091040260200160405190810160405280929190818152602001828054610a4d90611a2d565b8015610a9a5780601f10610a6f57610100808354040283529160200191610a9a565b820191906000526020600020905b815481529060010190602001808311610a7d57829003601f168201915b5050505050908060030160009054906101000a900460ff16908060040154905085565b60075481565b6000803373ffffffffffffffffffffffffffffffffffffffff1673ffffffffffffffffffffffffffffffffffffffff16815260200190815260200160002060009054906101000a900460ff16610b4e576040517f08c379a0000000000000000000000000000000000000000000000000000000008152600401610b4590611972565b60405180910390fd5b6001600360008381526020019081526020016000206004016000828254610b759190612022565b92505081905550600754600360008381526020019081526020016000206004015410610c855760016003600083815260200190815260200160002060030160006101000a81548160ff02191690831515021790555060016009600083815260200190815260200160002060003373ffffffffffffffffffffffffffffffffffffffff1673ffffffffffffffffffffffffffffffffffffffff16815260200190815260200160002060006101000a81548160ff021916908315150217905550807f186019ab8ca25facc660827c83b5b8a8d9bd191de689f6a919436ab7f56c7dc1600360008481526020019081526020016000206001604051610c78929190612056565b60405180910390a2610cd3565b807f186019ab8ca25facc660827c83b5b8a8d9bd191de689f6a919436ab7f56c7dc1600360008481526020019081526020016000206000604051610cca929190612056565b60405180910390a25b50565b60045481565b60085481565b6000803373ffffffffffffffffffffffffffffffffffffffff1673ffffffffffffffffffffffffffffffffffffffff16815260200190815260200160002060009054906101000a900460ff16610d6d576040517f08c379a0000000000000000000000000000000000000000000000000000000008152600401610d6490611972565b60405180910390fd5b3460086000828254610d7f9190612022565b925050819055503373ffffffffffffffffffffffffffffffffffffffff167f15c5e5074661a8ead1f42483b78845368a7dcab9d6f0cf5f3c435525e3f0b11f34604051610dcc91906116d2565b60405180910390a2565b6000803373ffffffffffffffffffffffffffffffffffffffff1673ffffffffffffffffffffffffffffffffffffffff16815260200190815260200160002060009054906101000a900460ff16610e61576040517f08c379a0000000000000000000000000000000000000000000000000000000008152600401610e5890611972565b60405180910390fd5b60075460036000838152602001908152602001600020600401541015610ebc576040517f08c379a0000000000000000000000000000000000000000000000000000000008152600401610eb3906120d2565b60405180910390fd5b60006003600083815260200190815260200160002060000160009054906101000a900473ffffffffffffffffffffffffffffffffffffffff1690506000600360008481526020019081526020016000206001015490508173ffffffffffffffffffffffffffffffffffffffff166108fc829081150290604051600060405180830381858888f19350505050158015610f58573d6000803e3d6000fd5b50600160046000828254610f6c9190612022565b9250508190555060006005600060045481526020019081526020016000206040518060a00160405290816000820160009054906101000a900473ffffffffffffffffffffffffffffffffffffffff1673ffffffffffffffffffffffffffffffffffffffff1673ffffffffffffffffffffffffffffffffffffffff1681526020016001820154815260200160028201805461100590611a2d565b80601f016020809104026020016040519081016040528092919081815260200182805461103190611a2d565b801561107e5780601f106110535761010080835404028352916020019161107e565b820191906000526020600020905b81548152906001019060200180831161106157829003601f168201915b505050505081526020016003820160009054906101000a900460ff1615151515815260200160048201548152505090506003600085815260200190815260200160002060000160009054906101000a900473ffffffffffffffffffffffffffffffffffffffff16816000019073ffffffffffffffffffffffffffffffffffffffff16908173ffffffffffffffffffffffffffffffffffffffff1681525050600360008581526020019081526020016000206001015481602001818152505060036000858152602001908152602001600020600201805461115d90611a2d565b80601f016020809104026020016040519081016040528092919081815260200182805461118990611a2d565b80156111d65780601f106111ab576101008083540402835291602001916111d6565b820191906000526020600020905b8154815290600101906020018083116111b957829003601f168201915b505050505081604001819052506001816060019015159081151581525050600360008581526020019081526020016000206004015481608001818152505060036000858152602001908152602001600020600101546008600082825461123c9190611e13565b9250508190555060036000858152602001908152602001600020600080820160006101000a81549073ffffffffffffffffffffffffffffffffffffffff02191690556001820160009055600282016000611296919061134f565b6003820160006101000a81549060ff0219169055600482016000905550506004547f66f6b7eff7d31f476d44527cea49e6641251615dc4bf57cb6596b9e7cbd399e66005600060045481526020019081526020016000206040516112fa9190612000565b60405180910390a250505050565b6040518060a00160405280600073ffffffffffffffffffffffffffffffffffffffff1681526020016000815260200160608152602001600015158152602001600081525090565b50805461135b90611a2d565b6000825580601f1061136d575061138c565b601f01602090049060005260206000209081019061138b919061138f565b5b50565b5b808211156113a8576000816000905550600101611390565b5090565b6000604051905090565b600080fd5b600080fd5b6000819050919050565b6113d3816113c0565b81146113de57600080fd5b50565b6000813590506113f0816113ca565b92915050565b60006020828403121561140c5761140b6113b6565b5b600061141a848285016113e1565b91505092915050565b600073ffffffffffffffffffffffffffffffffffffffff82169050919050565b600061144e82611423565b9050919050565b61145e81611443565b82525050565b60006020820190506114796000830184611455565b92915050565b61148881611443565b811461149357600080fd5b50565b6000813590506114a58161147f565b92915050565b600080fd5b600080fd5b6000601f19601f8301169050919050565b7f4e487b7100000000000000000000000000000000000000000000000000000000600052604160045260246000fd5b6114fe826114b5565b810181811067ffffffffffffffff8211171561151d5761151c6114c6565b5b80604052505050565b60006115306113ac565b905061153c82826114f5565b919050565b600067ffffffffffffffff82111561155c5761155b6114c6565b5b611565826114b5565b9050602081019050919050565b82818337600083830152505050565b600061159461158f84611541565b611526565b9050828152602081018484840111156115b0576115af6114b0565b5b6115bb848285611572565b509392505050565b600082601f8301126115d8576115d76114ab565b5b81356115e8848260208601611581565b91505092915050565b60008060006060848603121561160a576116096113b6565b5b600061161886828701611496565b9350506020611629868287016113e1565b925050604084013567ffffffffffffffff81111561164a576116496113bb565b5b611656868287016115c3565b9150509250925092565b600060208284031215611676576116756113b6565b5b600061168484828501611496565b91505092915050565b60008115159050919050565b6116a28161168d565b82525050565b60006020820190506116bd6000830184611699565b92915050565b6116cc816113c0565b82525050565b60006020820190506116e760008301846116c3565b92915050565b60008060408385031215611704576117036113b6565b5b6000611712858286016113e1565b925050602061172385828601611496565b9150509250929050565b61173681611443565b82525050565b611745816113c0565b82525050565b600081519050919050565b600082825260208201905092915050565b60005b8381101561178557808201518184015260208101905061176a565b60008484015250505050565b600061179c8261174b565b6117a68185611756565b93506117b6818560208601611767565b6117bf816114b5565b840191505092915050565b6117d38161168d565b82525050565b600060a0830160008301516117f1600086018261172d565b506020830151611804602086018261173c565b506040830151848203604086015261181c8282611791565b915050606083015161183160608601826117ca565b506080830151611844608086018261173c565b508091505092915050565b6000602082019050818103600083015261186981846117d9565b905092915050565b600082825260208201905092915050565b600061188d8261174b565b6118978185611871565b93506118a7818560208601611767565b6118b0816114b5565b840191505092915050565b600060a0820190506118d06000830188611455565b6118dd60208301876116c3565b81810360408301526118ef8186611882565b90506118fe6060830185611699565b61190b60808301846116c3565b9695505050505050565b600082825260208201905092915050565b7f4f6e6c79206f776e6572732063616e20646f20746869732e0000000000000000600082015250565b600061195c601883611915565b915061196782611926565b602082019050919050565b6000602082019050818103600083015261198b8161194f565b9050919050565b7f6d75737420626520677265617465207468616e20300000000000000000000000600082015250565b60006119c8601583611915565b91506119d382611992565b602082019050919050565b600060208201905081810360008301526119f7816119bb565b9050919050565b7f4e487b7100000000000000000000000000000000000000000000000000000000600052602260045260246000fd5b60006002820490506001821680611a4557607f821691505b602082108103611a5857611a576119fe565b5b50919050565b60008190508160005260206000209050919050565b60006020601f8301049050919050565b600082821b905092915050565b600060088302611ac07fffffffffffffffffffffffffffffffffffffffffffffffffffffffffffffffff82611a83565b611aca8683611a83565b95508019841693508086168417925050509392505050565b6000819050919050565b6000611b07611b02611afd846113c0565b611ae2565b6113c0565b9050919050565b6000819050919050565b611b2183611aec565b611b35611b2d82611b0e565b848454611a90565b825550505050565b600090565b611b4a611b3d565b611b55818484611b18565b505050565b5b81811015611b7957611b6e600082611b42565b600181019050611b5b565b5050565b601f821115611bbe57611b8f81611a5e565b611b9884611a73565b81016020851015611ba7578190505b611bbb611bb385611a73565b830182611b5a565b50505b505050565b600082821c905092915050565b6000611be160001984600802611bc3565b1980831691505092915050565b6000611bfa8383611bd0565b9150826002028217905092915050565b611c138261174b565b67ffffffffffffffff811115611c2c57611c2b6114c6565b5b611c368254611a2d565b611c41828285611b7d565b600060209050601f831160018114611c745760008415611c62578287015190505b611c6c8582611bee565b865550611cd4565b601f198416611c8286611a5e565b60005b82811015611caa57848901518255600182019150602085019450602081019050611c85565b86831015611cc75784890151611cc3601f891682611bd0565b8355505b6001600288020188555050505b505050505050565b6000604082019050611cf160008301856116c3565b8181036020830152611d038184611882565b90509392505050565b7f4e6f20636f6e6669726d6174696f6e7300000000000000000000000000000000600082015250565b6000611d42601083611915565b9150611d4d82611d0c565b602082019050919050565b60006020820190508181036000830152611d7181611d35565b9050919050565b7f596f75206469646e277420636f6e6669726d2100000000000000000000000000600082015250565b6000611dae601383611915565b9150611db982611d78565b602082019050919050565b60006020820190508181036000830152611ddd81611da1565b9050919050565b7f4e487b7100000000000000000000000000000000000000000000000000000000600052601160045260246000fd5b6000611e1e826113c0565b9150611e29836113c0565b9250828203905081811115611e4157611e40611de4565b5b92915050565b60008160001c9050919050565b600073ffffffffffffffffffffffffffffffffffffffff82169050919050565b6000611e87611e8283611e47565b611e54565b9050919050565b6000819050919050565b6000611eab611ea683611e47565b611e8e565b9050919050565b60008154611ebf81611a2d565b611ec98186611756565b94506001821660008114611ee45760018114611efa57611f2d565b60ff198316865281151560200286019350611f2d565b611f0385611a5e565b60005b83811015611f2557815481890152600182019150602081019050611f06565b808801955050505b50505092915050565b600060ff82169050919050565b6000611f56611f5183611e47565b611f36565b9050919050565b600060a083016000808401549050611f7481611e74565b611f81600087018261172d565b5060018401549050611f9281611e98565b611f9f602087018261173c565b50600284018583036040870152611fb68382611eb2565b92505060038401549050611fc981611f43565b611fd660608701826117ca565b5060048401549050611fe781611e98565b611ff4608087018261173c565b50819250505092915050565b6000602082019050818103600083015261201a8184611f5d565b905092915050565b600061202d826113c0565b9150612038836113c0565b92508282019050808211156120505761204f611de4565b5b92915050565b600060408201905081810360008301526120708185611f5d565b905061207f6020830184611699565b9392505050565b7f4e6f7420656e6f75676820636f6e6669726d6174696f6e732e00000000000000600082015250565b60006120bc601983611915565b91506120c782612086565b602082019050919050565b600060208201905081810360008301526120eb816120af565b905091905056fea26469706673582212202d8bec955efe9a91dbefd35743f339b0acc802ff105f71f0f815f7f1e66b17c764736f6c63430008110033",
    "linkReferences": {},
    "deployedLinkReferences": {}
}